{
  "_format": "hh-sol-artifact-1",
  "contractName": "PancakeZapV1",
  "sourceName": "contracts/PancakeZapV1.sol",
  "abi": [
    {
      "inputs": [
        {
          "internalType": "address",
          "name": "_WBNBAddress",
          "type": "address"
        },
        {
          "internalType": "address",
          "name": "_pancakeRouter",
          "type": "address"
        },
        {
          "internalType": "uint256",
          "name": "_maxZapReverseRatio",
          "type": "uint256"
        }
      ],
      "stateMutability": "nonpayable",
      "type": "constructor"
    },
    {
      "anonymous": false,
      "inputs": [
        {
          "indexed": true,
          "internalType": "address",
          "name": "tokenAddress",
          "type": "address"
        },
        {
          "indexed": false,
          "internalType": "uint256",
          "name": "amountTokens",
          "type": "uint256"
        }
      ],
      "name": "AdminTokenRecovery",
      "type": "event"
    },
    {
      "anonymous": false,
      "inputs": [
        {
          "indexed": false,
          "internalType": "uint256",
          "name": "maxZapReverseRatio",
          "type": "uint256"
        }
      ],
      "name": "NewMaxZapReverseRatio",
      "type": "event"
    },
    {
      "anonymous": false,
      "inputs": [
        {
          "indexed": true,
          "internalType": "address",
          "name": "previousOwner",
          "type": "address"
        },
        {
          "indexed": true,
          "internalType": "address",
          "name": "newOwner",
          "type": "address"
        }
      ],
      "name": "OwnershipTransferred",
      "type": "event"
    },
    {
      "anonymous": false,
      "inputs": [
        {
          "indexed": true,
          "internalType": "address",
          "name": "tokenToZap",
          "type": "address"
        },
        {
          "indexed": true,
          "internalType": "address",
          "name": "lpToken",
          "type": "address"
        },
        {
          "indexed": false,
          "internalType": "uint256",
          "name": "tokenAmountIn",
          "type": "uint256"
        },
        {
          "indexed": false,
          "internalType": "uint256",
          "name": "lpTokenAmountReceived",
          "type": "uint256"
        },
        {
          "indexed": true,
          "internalType": "address",
          "name": "user",
          "type": "address"
        }
      ],
      "name": "ZapIn",
      "type": "event"
    },
    {
      "anonymous": false,
      "inputs": [
        {
          "indexed": true,
          "internalType": "address",
          "name": "token0ToZap",
          "type": "address"
        },
        {
          "indexed": true,
          "internalType": "address",
          "name": "token1ToZap",
          "type": "address"
        },
        {
          "indexed": false,
          "internalType": "address",
          "name": "lpToken",
          "type": "address"
        },
        {
          "indexed": false,
          "internalType": "uint256",
          "name": "token0AmountIn",
          "type": "uint256"
        },
        {
          "indexed": false,
          "internalType": "uint256",
          "name": "token1AmountIn",
          "type": "uint256"
        },
        {
          "indexed": false,
          "internalType": "uint256",
          "name": "lpTokenAmountReceived",
          "type": "uint256"
        },
        {
          "indexed": true,
          "internalType": "address",
          "name": "user",
          "type": "address"
        }
      ],
      "name": "ZapInRebalancing",
      "type": "event"
    },
    {
      "anonymous": false,
      "inputs": [
        {
          "indexed": true,
          "internalType": "address",
          "name": "lpToken",
          "type": "address"
        },
        {
          "indexed": true,
          "internalType": "address",
          "name": "tokenToReceive",
          "type": "address"
        },
        {
          "indexed": false,
          "internalType": "uint256",
          "name": "lpTokenAmount",
          "type": "uint256"
        },
        {
          "indexed": false,
          "internalType": "uint256",
          "name": "tokenAmountReceived",
          "type": "uint256"
        },
        {
          "indexed": true,
          "internalType": "address",
          "name": "user",
          "type": "address"
        }
      ],
      "name": "ZapOut",
      "type": "event"
    },
    {
      "inputs": [],
      "name": "MAX_INT",
      "outputs": [
        {
          "internalType": "uint256",
          "name": "",
          "type": "uint256"
        }
      ],
      "stateMutability": "view",
      "type": "function"
    },
    {
      "inputs": [],
      "name": "MINIMUM_AMOUNT",
      "outputs": [
        {
          "internalType": "uint256",
          "name": "",
          "type": "uint256"
        }
      ],
      "stateMutability": "view",
      "type": "function"
    },
    {
      "inputs": [],
      "name": "WBNB",
      "outputs": [
        {
          "internalType": "contract IWETH",
          "name": "",
          "type": "address"
        }
      ],
      "stateMutability": "view",
      "type": "function"
    },
    {
      "inputs": [
        {
          "internalType": "address",
          "name": "_token0ToZap",
          "type": "address"
        },
        {
          "internalType": "address",
          "name": "_token1ToZap",
          "type": "address"
        },
        {
          "internalType": "uint256",
          "name": "_token0AmountIn",
          "type": "uint256"
        },
        {
          "internalType": "uint256",
          "name": "_token1AmountIn",
          "type": "uint256"
        },
        {
          "internalType": "address",
          "name": "_lpToken",
          "type": "address"
        }
      ],
      "name": "estimateZapInRebalancingSwap",
      "outputs": [
        {
          "internalType": "uint256",
          "name": "swapAmountIn",
          "type": "uint256"
        },
        {
          "internalType": "uint256",
          "name": "swapAmountOut",
          "type": "uint256"
        },
        {
          "internalType": "bool",
          "name": "sellToken0",
          "type": "bool"
        }
      ],
      "stateMutability": "view",
      "type": "function"
    },
    {
      "inputs": [
        {
          "internalType": "address",
          "name": "_tokenToZap",
          "type": "address"
        },
        {
          "internalType": "uint256",
          "name": "_tokenAmountIn",
          "type": "uint256"
        },
        {
          "internalType": "address",
          "name": "_lpToken",
          "type": "address"
        }
      ],
      "name": "estimateZapInSwap",
      "outputs": [
        {
          "internalType": "uint256",
          "name": "swapAmountIn",
          "type": "uint256"
        },
        {
          "internalType": "uint256",
          "name": "swapAmountOut",
          "type": "uint256"
        },
        {
          "internalType": "address",
          "name": "swapTokenOut",
          "type": "address"
        }
      ],
      "stateMutability": "view",
      "type": "function"
    },
    {
      "inputs": [
        {
          "internalType": "address",
          "name": "_lpToken",
          "type": "address"
        },
        {
          "internalType": "uint256",
          "name": "_lpTokenAmount",
          "type": "uint256"
        },
        {
          "internalType": "address",
          "name": "_tokenToReceive",
          "type": "address"
        }
      ],
      "name": "estimateZapOutSwap",
      "outputs": [
        {
          "internalType": "uint256",
          "name": "swapAmountIn",
          "type": "uint256"
        },
        {
          "internalType": "uint256",
          "name": "swapAmountOut",
          "type": "uint256"
        },
        {
          "internalType": "address",
          "name": "swapTokenOut",
          "type": "address"
        }
      ],
      "stateMutability": "view",
      "type": "function"
    },
    {
      "inputs": [],
      "name": "maxZapReverseRatio",
      "outputs": [
        {
          "internalType": "uint256",
          "name": "",
          "type": "uint256"
        }
      ],
      "stateMutability": "view",
      "type": "function"
    },
    {
      "inputs": [],
      "name": "owner",
      "outputs": [
        {
          "internalType": "address",
          "name": "",
          "type": "address"
        }
      ],
      "stateMutability": "view",
      "type": "function"
    },
    {
      "inputs": [],
      "name": "pancakeRouter",
      "outputs": [
        {
          "internalType": "contract IPancakeRouter02",
          "name": "",
          "type": "address"
        }
      ],
      "stateMutability": "view",
      "type": "function"
    },
    {
      "inputs": [
        {
          "internalType": "address",
          "name": "_tokenAddress",
          "type": "address"
        },
        {
          "internalType": "uint256",
          "name": "_tokenAmount",
          "type": "uint256"
        }
      ],
      "name": "recoverWrongTokens",
      "outputs": [],
      "stateMutability": "nonpayable",
      "type": "function"
    },
    {
      "inputs": [],
      "name": "renounceOwnership",
      "outputs": [],
      "stateMutability": "nonpayable",
      "type": "function"
    },
    {
      "inputs": [
        {
          "internalType": "address",
          "name": "newOwner",
          "type": "address"
        }
      ],
      "name": "transferOwnership",
      "outputs": [],
      "stateMutability": "nonpayable",
      "type": "function"
    },
    {
      "inputs": [
        {
          "internalType": "uint256",
          "name": "_maxZapInverseRatio",
          "type": "uint256"
        }
      ],
      "name": "updateMaxZapInverseRatio",
      "outputs": [],
      "stateMutability": "nonpayable",
      "type": "function"
    },
    {
      "inputs": [
        {
          "internalType": "address",
          "name": "_lpToken",
          "type": "address"
        },
        {
          "internalType": "uint256",
          "name": "_tokenAmountOutMin",
          "type": "uint256"
        }
      ],
      "name": "zapInBNB",
      "outputs": [],
      "stateMutability": "payable",
      "type": "function"
    },
    {
      "inputs": [
        {
          "internalType": "address",
          "name": "_token1ToZap",
          "type": "address"
        },
        {
          "internalType": "uint256",
          "name": "_token1AmountIn",
          "type": "uint256"
        },
        {
          "internalType": "address",
          "name": "_lpToken",
          "type": "address"
        },
        {
          "internalType": "uint256",
          "name": "_tokenAmountInMax",
          "type": "uint256"
        },
        {
          "internalType": "uint256",
          "name": "_tokenAmountOutMin",
          "type": "uint256"
        },
        {
          "internalType": "bool",
          "name": "_isToken0Sold",
          "type": "bool"
        }
      ],
      "name": "zapInBNBRebalancing",
      "outputs": [],
      "stateMutability": "payable",
      "type": "function"
    },
    {
      "inputs": [
        {
          "internalType": "address",
          "name": "_tokenToZap",
          "type": "address"
        },
        {
          "internalType": "uint256",
          "name": "_tokenAmountIn",
          "type": "uint256"
        },
        {
          "internalType": "address",
          "name": "_lpToken",
          "type": "address"
        },
        {
          "internalType": "uint256",
          "name": "_tokenAmountOutMin",
          "type": "uint256"
        }
      ],
      "name": "zapInToken",
      "outputs": [],
      "stateMutability": "nonpayable",
      "type": "function"
    },
    {
      "inputs": [
        {
          "internalType": "address",
          "name": "_token0ToZap",
          "type": "address"
        },
        {
          "internalType": "address",
          "name": "_token1ToZap",
          "type": "address"
        },
        {
          "internalType": "uint256",
          "name": "_token0AmountIn",
          "type": "uint256"
        },
        {
          "internalType": "uint256",
          "name": "_token1AmountIn",
          "type": "uint256"
        },
        {
          "internalType": "address",
          "name": "_lpToken",
          "type": "address"
        },
        {
          "internalType": "uint256",
          "name": "_tokenAmountInMax",
          "type": "uint256"
        },
        {
          "internalType": "uint256",
          "name": "_tokenAmountOutMin",
          "type": "uint256"
        },
        {
          "internalType": "bool",
          "name": "_isToken0Sold",
          "type": "bool"
        }
      ],
      "name": "zapInTokenRebalancing",
      "outputs": [],
      "stateMutability": "nonpayable",
      "type": "function"
    },
    {
      "inputs": [
        {
          "internalType": "address",
          "name": "_lpToken",
          "type": "address"
        },
        {
          "internalType": "uint256",
          "name": "_lpTokenAmount",
          "type": "uint256"
        },
        {
          "internalType": "uint256",
          "name": "_tokenAmountOutMin",
          "type": "uint256"
        }
      ],
      "name": "zapOutBNB",
      "outputs": [],
      "stateMutability": "nonpayable",
      "type": "function"
    },
    {
      "inputs": [
        {
          "internalType": "address",
          "name": "_lpToken",
          "type": "address"
        },
        {
          "internalType": "address",
          "name": "_tokenToReceive",
          "type": "address"
        },
        {
          "internalType": "uint256",
          "name": "_lpTokenAmount",
          "type": "uint256"
        },
        {
          "internalType": "uint256",
          "name": "_tokenAmountOutMin",
          "type": "uint256"
        }
      ],
      "name": "zapOutToken",
      "outputs": [],
      "stateMutability": "nonpayable",
      "type": "function"
    },
    {
      "stateMutability": "payable",
      "type": "receive"
    }
  ],
  "bytecode": "0x60806040523480156200001157600080fd5b506040516200571038038062005710833981016040819052620000349162000102565b6200003f3362000095565b60018055600680546001600160a01b039485166001600160a01b03199182168117909255600280548216909217909155600580549390941692811683179093556003805490931690911790915560045562000142565b600080546001600160a01b038381166001600160a01b0319831681178455604051919092169283917f8be0079c531659141344cd1fd0a4f28419497f9722a3daafe3b4186f6b6457e09190a35050565b80516001600160a01b0381168114620000fd57600080fd5b919050565b60008060006060848603121562000117578283fd5b6200012284620000e5565b92506200013260208501620000e5565b9150604084015190509250925092565b6155be80620001526000396000f3fe6080604052600436106101485760003560e01c8063715018a6116100c05780638dd9500211610074578063c21ebd0711610059578063c21ebd0714610424578063e3ceb16b14610451578063f2fde38b1461046457600080fd5b80638dd95002146103d7578063b421e91e1461040457600080fd5b806384b73115116100a557806384b731151461034b57806387e3f21c1461036b5780638da5cb5b1461038b57600080fd5b8063715018a6146102f957806382c98b2d1461030e57600080fd5b80632f883da4116101175780633f138d4b116100fc5780633f138d4b146102a65780635cb88a3f146102c65780635fcbdaed146102d957600080fd5b80632f883da4146102355780633b0a48bb1461028657600080fd5b8063098d3228146101a25780630f4e4e63146101e9578063257d9bb8146101ff5780632b4652eb1461021557600080fd5b3661019d5760065473ffffffffffffffffffffffffffffffffffffffff16331461019b577f4e487b7100000000000000000000000000000000000000000000000000000000600052600160045260246000fd5b005b600080fd5b3480156101ae57600080fd5b506101d67fffffffffffffffffffffffffffffffffffffffffffffffffffffffffffffffff81565b6040519081526020015b60405180910390f35b3480156101f557600080fd5b506101d660045481565b34801561020b57600080fd5b506101d66103e881565b34801561022157600080fd5b5061019b6102303660046152b2565b610484565b34801561024157600080fd5b50610255610250366004615053565b6104c7565b60408051938452602084019290925273ffffffffffffffffffffffffffffffffffffffff16908201526060016101e0565b34801561029257600080fd5b506102556102a1366004615053565b610a3c565b3480156102b257600080fd5b5061019b6102c1366004615028565b610e7d565b61019b6102d4366004615028565b610efa565b3480156102e557600080fd5b5061019b6102f4366004615141565b611015565b34801561030557600080fd5b5061019b61121f565b34801561031a57600080fd5b5061032e610329366004614f46565b611233565b6040805193845260208401929092521515908201526060016101e0565b34801561035757600080fd5b5061019b610366366004614f01565b611a65565b34801561037757600080fd5b5061019b610386366004615094565b611b28565b34801561039757600080fd5b5060005473ffffffffffffffffffffffffffffffffffffffff165b60405173ffffffffffffffffffffffffffffffffffffffff90911681526020016101e0565b3480156103e357600080fd5b506002546103b29073ffffffffffffffffffffffffffffffffffffffff1681565b34801561041057600080fd5b5061019b61041f366004614fa4565b611be1565b34801561043057600080fd5b506003546103b29073ffffffffffffffffffffffffffffffffffffffff1681565b61019b61045f3660046150db565b611cbe565b34801561047057600080fd5b5061019b61047f366004614ec2565b611e15565b61048c611ecc565b60048190556040518181527fc7e29c44236bfea8bef0d337e382f5f27ec5bc4d425d82437f115f9b59d2ba799060200160405180910390a150565b6000806000808673ffffffffffffffffffffffffffffffffffffffff16630dfe16816040518163ffffffff1660e01b815260040160206040518083038186803b15801561051357600080fd5b505afa158015610527573d6000803e3d6000fd5b505050506040513d601f19601f8201168201806040525081019061054b9190614ee5565b905060008773ffffffffffffffffffffffffffffffffffffffff1663d21220a76040518163ffffffff1660e01b815260040160206040518083038186803b15801561059557600080fd5b505afa1580156105a9573d6000803e3d6000fd5b505050506040513d601f19601f820116820180604052508101906105cd9190614ee5565b90508173ffffffffffffffffffffffffffffffffffffffff168673ffffffffffffffffffffffffffffffffffffffff16148061063457508073ffffffffffffffffffffffffffffffffffffffff168673ffffffffffffffffffffffffffffffffffffffff16145b61069f576040517f08c379a000000000000000000000000000000000000000000000000000000000815260206004820152601460248201527f5a61703a20546f6b656e206e6f7420696e204c5000000000000000000000000060448201526064015b60405180910390fd5b6000808973ffffffffffffffffffffffffffffffffffffffff16630902f1ac6040518163ffffffff1660e01b815260040160606040518083038186803b1580156106e857600080fd5b505afa1580156106fc573d6000803e3d6000fd5b505050506040513d601f19601f82011682018060405250810190610720919061526f565b506dffffffffffffffffffffffffffff1691506dffffffffffffffffffffffffffff1691508773ffffffffffffffffffffffffffffffffffffffff168373ffffffffffffffffffffffffffffffffffffffff1614156108d65760008a73ffffffffffffffffffffffffffffffffffffffff166318160ddd6040518163ffffffff1660e01b815260040160206040518083038186803b1580156107c157600080fd5b505afa1580156107d5573d6000803e3d6000fd5b505050506040513d601f19601f820116820180604052508101906107f991906152ca565b610803848c61547a565b61080d9190615441565b905061081a818484611f4d565b6003546040517f054d50d400000000000000000000000000000000000000000000000000000000815260048101839052602481018690526044810185905291995073ffffffffffffffffffffffffffffffffffffffff169063054d50d49060640160206040518083038186803b15801561089357600080fd5b505afa1580156108a7573d6000803e3d6000fd5b505050506040513d601f19601f820116820180604052508101906108cb91906152ca565b965084955050610a2f565b60008a73ffffffffffffffffffffffffffffffffffffffff166318160ddd6040518163ffffffff1660e01b815260040160206040518083038186803b15801561091e57600080fd5b505afa158015610932573d6000803e3d6000fd5b505050506040513d601f19601f8201168201806040525081019061095691906152ca565b610960838c61547a565b61096a9190615441565b9050610977818385611f4d565b6003546040517f054d50d400000000000000000000000000000000000000000000000000000000815260048101839052602481018590526044810186905291995073ffffffffffffffffffffffffffffffffffffffff169063054d50d49060640160206040518083038186803b1580156109f057600080fd5b505afa158015610a04573d6000803e3d6000fd5b505050506040513d601f19601f82011682018060405250810190610a2891906152ca565b9650839550505b5050505093509350939050565b6000806000808473ffffffffffffffffffffffffffffffffffffffff16630dfe16816040518163ffffffff1660e01b815260040160206040518083038186803b158015610a8857600080fd5b505afa158015610a9c573d6000803e3d6000fd5b505050506040513d601f19601f82011682018060405250810190610ac09190614ee5565b905060008573ffffffffffffffffffffffffffffffffffffffff1663d21220a76040518163ffffffff1660e01b815260040160206040518083038186803b158015610b0a57600080fd5b505afa158015610b1e573d6000803e3d6000fd5b505050506040513d601f19601f82011682018060405250810190610b429190614ee5565b90508173ffffffffffffffffffffffffffffffffffffffff168873ffffffffffffffffffffffffffffffffffffffff161480610ba957508073ffffffffffffffffffffffffffffffffffffffff168873ffffffffffffffffffffffffffffffffffffffff16145b610c0f576040517f08c379a000000000000000000000000000000000000000000000000000000000815260206004820152601160248201527f5a61703a2057726f6e6720746f6b656e730000000000000000000000000000006044820152606401610696565b6000808773ffffffffffffffffffffffffffffffffffffffff16630902f1ac6040518163ffffffff1660e01b815260040160606040518083038186803b158015610c5857600080fd5b505afa158015610c6c573d6000803e3d6000fd5b505050506040513d601f19601f82011682018060405250810190610c90919061526f565b506dffffffffffffffffffffffffffff1691506dffffffffffffffffffffffffffff1691508973ffffffffffffffffffffffffffffffffffffffff168473ffffffffffffffffffffffffffffffffffffffff161415610daf57829450610cf7898383611f4d565b6003546040517f054d50d400000000000000000000000000000000000000000000000000000000815260048101839052602481018590526044810184905291985073ffffffffffffffffffffffffffffffffffffffff169063054d50d49060640160206040518083038186803b158015610d7057600080fd5b505afa158015610d84573d6000803e3d6000fd5b505050506040513d601f19601f82011682018060405250810190610da891906152ca565b9550610a2f565b839450610dbd898284611f4d565b6003546040517f054d50d400000000000000000000000000000000000000000000000000000000815260048101839052602481018490526044810185905291985073ffffffffffffffffffffffffffffffffffffffff169063054d50d49060640160206040518083038186803b158015610e3657600080fd5b505afa158015610e4a573d6000803e3d6000fd5b505050506040513d601f19601f82011682018060405250810190610e6e91906152ca565b95505050505093509350939050565b610e85611ecc565b610ea673ffffffffffffffffffffffffffffffffffffffff8316338361211d565b8173ffffffffffffffffffffffffffffffffffffffff167f74545154aac348a3eac92596bd1971957ca94795f4e954ec5f613b55fab7812982604051610eee91815260200190565b60405180910390a25050565b610f026121f1565b600260009054906101000a900473ffffffffffffffffffffffffffffffffffffffff1673ffffffffffffffffffffffffffffffffffffffff1663d0e30db0346040518263ffffffff1660e01b81526004016000604051808303818588803b158015610f6c57600080fd5b505af1158015610f80573d6000803e3d6000fd5b505060065460009350610fae925073ffffffffffffffffffffffffffffffffffffffff169050348585612265565b6040805134815260208101839052919250339173ffffffffffffffffffffffffffffffffffffffff8616916000917fa71185a0ff368de4e9e445d8601c4fbd50d9b674e4e43f5f8feafb8d64a2e13e910160405180910390a45061101160018055565b5050565b61101d6121f1565b61103f73ffffffffffffffffffffffffffffffffffffffff8416338585612b98565b60065460009061106790859073ffffffffffffffffffffffffffffffffffffffff1684612bf6565b6002546040517f2e1a7d4d0000000000000000000000000000000000000000000000000000000081526004810183905291925073ffffffffffffffffffffffffffffffffffffffff1690632e1a7d4d90602401600060405180830381600087803b1580156110d457600080fd5b505af11580156110e8573d6000803e3d6000fd5b505060408051600080825260208201928390529350339250849161110c9190615332565b60006040518083038185875af1925050503d8060008114611149576040519150601f19603f3d011682016040523d82523d6000602084013e61114e565b606091505b50509050806111b9576040517f08c379a000000000000000000000000000000000000000000000000000000000815260206004820152601260248201527f424e423a207472616e73666572206661696c00000000000000000000000000006044820152606401610696565b6040805185815260208101849052339160009173ffffffffffffffffffffffffffffffffffffffff8916917f20ef8a4c975ec6c340089d8171a0f9c6a6324b11e3ecc4353155186f6c638c28910160405180910390a4505061121a60018055565b505050565b611227611ecc565b6112316000613384565b565b60008060008373ffffffffffffffffffffffffffffffffffffffff16630dfe16816040518163ffffffff1660e01b815260040160206040518083038186803b15801561127e57600080fd5b505afa158015611292573d6000803e3d6000fd5b505050506040513d601f19601f820116820180604052508101906112b69190614ee5565b73ffffffffffffffffffffffffffffffffffffffff168873ffffffffffffffffffffffffffffffffffffffff16148061139757508373ffffffffffffffffffffffffffffffffffffffff1663d21220a76040518163ffffffff1660e01b815260040160206040518083038186803b15801561133057600080fd5b505afa158015611344573d6000803e3d6000fd5b505050506040513d601f19601f820116820180604052508101906113689190614ee5565b73ffffffffffffffffffffffffffffffffffffffff168873ffffffffffffffffffffffffffffffffffffffff16145b6113fd576040517f08c379a000000000000000000000000000000000000000000000000000000000815260206004820152601160248201527f5a61703a2057726f6e6720746f6b656e300000000000000000000000000000006044820152606401610696565b8373ffffffffffffffffffffffffffffffffffffffff16630dfe16816040518163ffffffff1660e01b815260040160206040518083038186803b15801561144357600080fd5b505afa158015611457573d6000803e3d6000fd5b505050506040513d601f19601f8201168201806040525081019061147b9190614ee5565b73ffffffffffffffffffffffffffffffffffffffff168773ffffffffffffffffffffffffffffffffffffffff16148061155c57508373ffffffffffffffffffffffffffffffffffffffff1663d21220a76040518163ffffffff1660e01b815260040160206040518083038186803b1580156114f557600080fd5b505afa158015611509573d6000803e3d6000fd5b505050506040513d601f19601f8201168201806040525081019061152d9190614ee5565b73ffffffffffffffffffffffffffffffffffffffff168773ffffffffffffffffffffffffffffffffffffffff16145b6115c2576040517f08c379a000000000000000000000000000000000000000000000000000000000815260206004820152601160248201527f5a61703a2057726f6e6720746f6b656e310000000000000000000000000000006044820152606401610696565b8673ffffffffffffffffffffffffffffffffffffffff168873ffffffffffffffffffffffffffffffffffffffff161415611658576040517f08c379a000000000000000000000000000000000000000000000000000000000815260206004820152601060248201527f5a61703a2053616d6520746f6b656e73000000000000000000000000000000006044820152606401610696565b6000808573ffffffffffffffffffffffffffffffffffffffff16630902f1ac6040518163ffffffff1660e01b815260040160606040518083038186803b1580156116a157600080fd5b505afa1580156116b5573d6000803e3d6000fd5b505050506040513d601f19601f820116820180604052508101906116d9919061526f565b506dffffffffffffffffffffffffffff1691506dffffffffffffffffffffffffffff1691508573ffffffffffffffffffffffffffffffffffffffff16630dfe16816040518163ffffffff1660e01b815260040160206040518083038186803b15801561174457600080fd5b505afa158015611758573d6000803e3d6000fd5b505050506040513d601f19601f8201168201806040525081019061177c9190614ee5565b73ffffffffffffffffffffffffffffffffffffffff168a73ffffffffffffffffffffffffffffffffffffffff161415611906576117b9828861547a565b6117c3828a61547a565b116117cf5760006117d2565b60015b92506117e188888484876133f9565b945082156118a1576003546040517f054d50d400000000000000000000000000000000000000000000000000000000815260048101879052602481018490526044810183905273ffffffffffffffffffffffffffffffffffffffff9091169063054d50d4906064015b60206040518083038186803b15801561186257600080fd5b505afa158015611876573d6000803e3d6000fd5b505050506040513d601f19601f8201168201806040525081019061189a91906152ca565b9350611a58565b6003546040517f054d50d400000000000000000000000000000000000000000000000000000000815260048101879052602481018390526044810184905273ffffffffffffffffffffffffffffffffffffffff9091169063054d50d49060640161184a565b611910818861547a565b61191a838a61547a565b11611926576000611929565b60015b925061193888888385876133f9565b945082156119a5576003546040517f054d50d400000000000000000000000000000000000000000000000000000000815260048101879052602481018390526044810184905273ffffffffffffffffffffffffffffffffffffffff9091169063054d50d49060640161184a565b6003546040517f054d50d400000000000000000000000000000000000000000000000000000000815260048101879052602481018490526044810183905273ffffffffffffffffffffffffffffffffffffffff9091169063054d50d49060640160206040518083038186803b158015611a1d57600080fd5b505afa158015611a31573d6000803e3d6000fd5b505050506040513d601f19601f82011682018060405250810190611a5591906152ca565b93505b5050955095509592505050565b611a6d6121f1565b611a8f73ffffffffffffffffffffffffffffffffffffffff8516338685612b98565b6000611a9c858584612bf6565b9050611abf73ffffffffffffffffffffffffffffffffffffffff8516338361211d565b6040805184815260208101839052339173ffffffffffffffffffffffffffffffffffffffff87811692908916917f20ef8a4c975ec6c340089d8171a0f9c6a6324b11e3ecc4353155186f6c638c2891015b60405180910390a450611b2260018055565b50505050565b611b306121f1565b611b5273ffffffffffffffffffffffffffffffffffffffff8516333086612b98565b6000611b6085858585612265565b90503373ffffffffffffffffffffffffffffffffffffffff168373ffffffffffffffffffffffffffffffffffffffff168673ffffffffffffffffffffffffffffffffffffffff167fa71185a0ff368de4e9e445d8601c4fbd50d9b674e4e43f5f8feafb8d64a2e13e8785604051611b10929190918252602082015260400190565b611be96121f1565b611c0b73ffffffffffffffffffffffffffffffffffffffff8916333089612b98565b611c2d73ffffffffffffffffffffffffffffffffffffffff8816333088612b98565b6000611c3f89898989898989896138da565b6040805173ffffffffffffffffffffffffffffffffffffffff8881168252602082018b90529181018990526060810183905291925033918a8216918c16907f4ff29158e89c3af93365bf0fa1d14c5768109fb139f24b97c8a7d510b2d5e3f69060800160405180910390a450611cb460018055565b5050505050505050565b611cc66121f1565b600260009054906101000a900473ffffffffffffffffffffffffffffffffffffffff1673ffffffffffffffffffffffffffffffffffffffff1663d0e30db0346040518263ffffffff1660e01b81526004016000604051808303818588803b158015611d3057600080fd5b505af1158015611d44573d6000803e3d6000fd5b50611d6d9350505073ffffffffffffffffffffffffffffffffffffffff88169050333088612b98565b600654600090611d999073ffffffffffffffffffffffffffffffffffffffff16883489898989896138da565b6040805173ffffffffffffffffffffffffffffffffffffffff8881168252346020830152918101899052606081018390529192503391908916906000907f4ff29158e89c3af93365bf0fa1d14c5768109fb139f24b97c8a7d510b2d5e3f69060800160405180910390a450611e0d60018055565b505050505050565b611e1d611ecc565b73ffffffffffffffffffffffffffffffffffffffff8116611ec0576040517f08c379a000000000000000000000000000000000000000000000000000000000815260206004820152602660248201527f4f776e61626c653a206e6577206f776e657220697320746865207a65726f206160448201527f64647265737300000000000000000000000000000000000000000000000000006064820152608401610696565b611ec981613384565b50565b60005473ffffffffffffffffffffffffffffffffffffffff163314611231576040517f08c379a000000000000000000000000000000000000000000000000000000000815260206004820181905260248201527f4f776e61626c653a2063616c6c6572206973206e6f7420746865206f776e65726044820152606401610696565b600080611f5b600286615441565b6003546040517f054d50d400000000000000000000000000000000000000000000000000000000815260048101839052602481018790526044810186905291925060009173ffffffffffffffffffffffffffffffffffffffff9091169063054d50d49060640160206040518083038186803b158015611fd957600080fd5b505afa158015611fed573d6000803e3d6000fd5b505050506040513d601f19601f8201168201806040525081019061201191906152ca565b60035490915060009073ffffffffffffffffffffffffffffffffffffffff1663ad615dec84612040818a615429565b61204a868a6154b7565b6040517fffffffff0000000000000000000000000000000000000000000000000000000060e086901b16815260048101939093526024830191909152604482015260640160206040518083038186803b1580156120a657600080fd5b505afa1580156120ba573d6000803e3d6000fd5b505050506040513d601f19601f820116820180604052508101906120de91906152ca565b905061210881836120ef868061547a565b6120f9919061547a565b6121039190615441565b61477f565b61211290886154b7565b979650505050505050565b60405173ffffffffffffffffffffffffffffffffffffffff831660248201526044810182905261121a9084907fa9059cbb00000000000000000000000000000000000000000000000000000000906064015b604080517fffffffffffffffffffffffffffffffffffffffffffffffffffffffffffffffe08184030181529190526020810180517bffffffffffffffffffffffffffffffffffffffffffffffffffffffff167fffffffff000000000000000000000000000000000000000000000000000000009093169290921790915261490a565b6002600154141561225e576040517f08c379a000000000000000000000000000000000000000000000000000000000815260206004820152601f60248201527f5265656e7472616e637947756172643a207265656e7472616e742063616c6c006044820152606401610696565b6002600155565b60006103e88410156122d3576040517f08c379a000000000000000000000000000000000000000000000000000000000815260206004820152601360248201527f5a61703a20416d6f756e7420746f6f206c6f77000000000000000000000000006044820152606401610696565b60008373ffffffffffffffffffffffffffffffffffffffff16630dfe16816040518163ffffffff1660e01b815260040160206040518083038186803b15801561231b57600080fd5b505afa15801561232f573d6000803e3d6000fd5b505050506040513d601f19601f820116820180604052508101906123539190614ee5565b905060008473ffffffffffffffffffffffffffffffffffffffff1663d21220a76040518163ffffffff1660e01b815260040160206040518083038186803b15801561239d57600080fd5b505afa1580156123b1573d6000803e3d6000fd5b505050506040513d601f19601f820116820180604052508101906123d59190614ee5565b90508173ffffffffffffffffffffffffffffffffffffffff168773ffffffffffffffffffffffffffffffffffffffff16148061243c57508073ffffffffffffffffffffffffffffffffffffffff168773ffffffffffffffffffffffffffffffffffffffff16145b6124a2576040517f08c379a000000000000000000000000000000000000000000000000000000000815260206004820152601160248201527f5a61703a2057726f6e6720746f6b656e730000000000000000000000000000006044820152606401610696565b60408051600280825260608201835260009260208301908036833701905050905087816000815181106124fe577f4e487b7100000000000000000000000000000000000000000000000000000000600052603260045260246000fd5b602002602001019073ffffffffffffffffffffffffffffffffffffffff16908173ffffffffffffffffffffffffffffffffffffffff168152505060008060008873ffffffffffffffffffffffffffffffffffffffff16630902f1ac6040518163ffffffff1660e01b815260040160606040518083038186803b15801561258357600080fd5b505afa158015612597573d6000803e3d6000fd5b505050506040513d601f19601f820116820180604052508101906125bb919061526f565b506dffffffffffffffffffffffffffff1691506dffffffffffffffffffffffffffff1691506103e882101580156125f457506103e88110155b61265a576040517f08c379a000000000000000000000000000000000000000000000000000000000815260206004820152601560248201527f5a61703a20526573657276657320746f6f206c6f7700000000000000000000006044820152606401610696565b8a73ffffffffffffffffffffffffffffffffffffffff168673ffffffffffffffffffffffffffffffffffffffff161415612775576126998a8383611f4d565b925084846001815181106126d6577f4e487b7100000000000000000000000000000000000000000000000000000000600052603260045260246000fd5b73ffffffffffffffffffffffffffffffffffffffff909216602092830291909101909101526004546127088484615441565b1015612770576040517f08c379a000000000000000000000000000000000000000000000000000000000815260206004820152601f60248201527f5a61703a205175616e7469747920686967686572207468616e206c696d6974006044820152606401610696565b612857565b6127808a8284611f4d565b925085846001815181106127bd577f4e487b7100000000000000000000000000000000000000000000000000000000600052603260045260246000fd5b73ffffffffffffffffffffffffffffffffffffffff909216602092830291909101909101526004546127ef8483615441565b1015612857576040517f08c379a000000000000000000000000000000000000000000000000000000000815260206004820152601f60248201527f5a61703a205175616e7469747920686967686572207468616e206c696d6974006044820152606401610696565b505061286289614a19565b6003546040517f38ed173900000000000000000000000000000000000000000000000000000000815260009173ffffffffffffffffffffffffffffffffffffffff16906338ed1739906128c19085908b9088903090429060040161539f565b600060405180830381600087803b1580156128db57600080fd5b505af11580156128ef573d6000803e3d6000fd5b505050506040513d6000823e601f3d9081017fffffffffffffffffffffffffffffffffffffffffffffffffffffffffffffffe01682016040526129359190810190615175565b90508973ffffffffffffffffffffffffffffffffffffffff168573ffffffffffffffffffffffffffffffffffffffff1614156129795761297484614a19565b612982565b61298285614a19565b600354835173ffffffffffffffffffffffffffffffffffffffff9091169063e8e337009085906000906129de577f4e487b7100000000000000000000000000000000000000000000000000000000600052603260045260246000fd5b602002602001015185600181518110612a20577f4e487b7100000000000000000000000000000000000000000000000000000000600052603260045260246000fd5b602002602001015184600081518110612a62577f4e487b7100000000000000000000000000000000000000000000000000000000600052603260045260246000fd5b60200260200101518d612a7591906154b7565b85600181518110612aaf577f4e487b7100000000000000000000000000000000000000000000000000000000600052603260045260246000fd5b60209081029190910101516040517fffffffff0000000000000000000000000000000000000000000000000000000060e087901b16815273ffffffffffffffffffffffffffffffffffffffff94851660048201529390921660248401526044830152606482015260016084820181905260a48201523360c48201524260e482015261010401606060405180830381600087803b158015612b4e57600080fd5b505af1158015612b62573d6000803e3d6000fd5b505050506040513d601f19601f82011682018060405250810190612b869190615305565b9750505050505050505b949350505050565b60405173ffffffffffffffffffffffffffffffffffffffff80851660248301528316604482015260648101829052611b229085907f23b872dd000000000000000000000000000000000000000000000000000000009060840161216f565b6000808473ffffffffffffffffffffffffffffffffffffffff16630dfe16816040518163ffffffff1660e01b815260040160206040518083038186803b158015612c3f57600080fd5b505afa158015612c53573d6000803e3d6000fd5b505050506040513d601f19601f82011682018060405250810190612c779190614ee5565b905060008573ffffffffffffffffffffffffffffffffffffffff1663d21220a76040518163ffffffff1660e01b815260040160206040518083038186803b158015612cc157600080fd5b505afa158015612cd5573d6000803e3d6000fd5b505050506040513d601f19601f82011682018060405250810190612cf99190614ee5565b90508173ffffffffffffffffffffffffffffffffffffffff168573ffffffffffffffffffffffffffffffffffffffff161480612d6057508073ffffffffffffffffffffffffffffffffffffffff168573ffffffffffffffffffffffffffffffffffffffff16145b612dc6576040517f08c379a000000000000000000000000000000000000000000000000000000000815260206004820152601460248201527f5a61703a20546f6b656e206e6f7420696e204c500000000000000000000000006044820152606401610696565b6040517f89afcb44000000000000000000000000000000000000000000000000000000008152306004820152600090819073ffffffffffffffffffffffffffffffffffffffff8916906389afcb44906024016040805180830381600087803b158015612e3157600080fd5b505af1158015612e45573d6000803e3d6000fd5b505050506040513d601f19601f82011682018060405250810190612e6991906152e2565b915091506103e8821015612efe576040517f08c379a0000000000000000000000000000000000000000000000000000000008152602060048201526024808201527f50616e63616b65526f757465723a20494e53554646494349454e545f415f414d60448201527f4f554e54000000000000000000000000000000000000000000000000000000006064820152608401610696565b6103e8811015612f8f576040517f08c379a0000000000000000000000000000000000000000000000000000000008152602060048201526024808201527f50616e63616b65526f757465723a20494e53554646494349454e545f425f414d60448201527f4f554e54000000000000000000000000000000000000000000000000000000006064820152608401610696565b6040805160028082526060820183526000926020830190803683370190505090508781600181518110612feb577f4e487b7100000000000000000000000000000000000000000000000000000000600052603260045260246000fd5b73ffffffffffffffffffffffffffffffffffffffff9283166020918202929092010152600090868116908a161415613114578482600081518110613058577f4e487b7100000000000000000000000000000000000000000000000000000000600052603260045260246000fd5b73ffffffffffffffffffffffffffffffffffffffff92831660209182029290920101526040517f70a08231000000000000000000000000000000000000000000000000000000008152306004820152908616906370a082319060240160206040518083038186803b1580156130cc57600080fd5b505afa1580156130e0573d6000803e3d6000fd5b505050506040513d601f19601f8201168201806040525081019061310491906152ca565b905061310f85614a19565b613206565b858260008151811061314f577f4e487b7100000000000000000000000000000000000000000000000000000000600052603260045260246000fd5b73ffffffffffffffffffffffffffffffffffffffff92831660209182029290920101526040517f70a08231000000000000000000000000000000000000000000000000000000008152306004820152908716906370a082319060240160206040518083038186803b1580156131c357600080fd5b505afa1580156131d7573d6000803e3d6000fd5b505050506040513d601f19601f820116820180604052508101906131fb91906152ca565b905061320686614a19565b6003546040517f38ed173900000000000000000000000000000000000000000000000000000000815273ffffffffffffffffffffffffffffffffffffffff909116906338ed1739906132649084908c9087903090429060040161539f565b600060405180830381600087803b15801561327e57600080fd5b505af1158015613292573d6000803e3d6000fd5b505050506040513d6000823e601f3d9081017fffffffffffffffffffffffffffffffffffffffffffffffffffffffffffffffe01682016040526132d89190810190615175565b506040517f70a0823100000000000000000000000000000000000000000000000000000000815230600482015273ffffffffffffffffffffffffffffffffffffffff8a16906370a082319060240160206040518083038186803b15801561333e57600080fd5b505afa158015613352573d6000803e3d6000fd5b505050506040513d601f19601f8201168201806040525081019061337691906152ca565b9a9950505050505050505050565b6000805473ffffffffffffffffffffffffffffffffffffffff8381167fffffffffffffffffffffffff0000000000000000000000000000000000000000831681178455604051919092169283917f8be0079c531659141344cd1fd0a4f28419497f9722a3daafe3b4186f6b6457e09190a35050565b600080613406858761547a565b613410858961547a565b1161341c57600061341f565b60015b90508215158115151461348e576040517f08c379a000000000000000000000000000000000000000000000000000000000815260206004820152601a60248201527f5a61703a2057726f6e6720747261646520646972656374696f6e0000000000006044820152606401610696565b80156136b45760006002856134a3888a61547a565b6134ad9190615441565b6134b7908a6154b7565b6134c19190615441565b6003546040517f054d50d400000000000000000000000000000000000000000000000000000000815260048101839052602481018990526044810188905291925060009173ffffffffffffffffffffffffffffffffffffffff9091169063054d50d49060640160206040518083038186803b15801561353f57600080fd5b505afa158015613553573d6000803e3d6000fd5b505050506040513d601f19601f8201168201806040525081019061357791906152ca565b60035490915060009073ffffffffffffffffffffffffffffffffffffffff1663ad615dec846135a6818c615429565b6135b0868c6154b7565b6040517fffffffff0000000000000000000000000000000000000000000000000000000060e086901b16815260048101939093526024830191909152604482015260640160206040518083038186803b15801561360c57600080fd5b505afa158015613620573d6000803e3d6000fd5b505050506040513d601f19601f8201168201806040525081019061364491906152ca565b9050600261365283896154b7565b61365c858b615429565b613666908c61547a565b6136709190615441565b61367a908c6154b7565b6136849190615441565b925061369581836120ef868061547a565b6136a084600261547a565b6136aa91906154b7565b94505050506138d0565b60006002866136c3878b61547a565b6136cd9190615441565b6136d790896154b7565b6136e19190615441565b6003546040517f054d50d400000000000000000000000000000000000000000000000000000000815260048101839052602481018890526044810189905291925060009173ffffffffffffffffffffffffffffffffffffffff9091169063054d50d49060640160206040518083038186803b15801561375f57600080fd5b505afa158015613773573d6000803e3d6000fd5b505050506040513d601f19601f8201168201806040525081019061379791906152ca565b60035490915060009073ffffffffffffffffffffffffffffffffffffffff1663ad615dec846137c6818b615429565b6137d0868d6154b7565b6040517fffffffff0000000000000000000000000000000000000000000000000000000060e086901b16815260048101939093526024830191909152604482015260640160206040518083038186803b15801561382c57600080fd5b505afa158015613840573d6000803e3d6000fd5b505050506040513d601f19601f8201168201806040525081019061386491906152ca565b90506002613872838a6154b7565b61387c858a615429565b613886908d61547a565b6138909190615441565b61389a908b6154b7565b6138a49190615441565b92506138b581836120ef868061547a565b6138c084600261547a565b6138ca91906154b7565b94505050505b5095945050505050565b60008473ffffffffffffffffffffffffffffffffffffffff16630dfe16816040518163ffffffff1660e01b815260040160206040518083038186803b15801561392257600080fd5b505afa158015613936573d6000803e3d6000fd5b505050506040513d601f19601f8201168201806040525081019061395a9190614ee5565b73ffffffffffffffffffffffffffffffffffffffff168973ffffffffffffffffffffffffffffffffffffffff161480613a3b57508473ffffffffffffffffffffffffffffffffffffffff1663d21220a76040518163ffffffff1660e01b815260040160206040518083038186803b1580156139d457600080fd5b505afa1580156139e8573d6000803e3d6000fd5b505050506040513d601f19601f82011682018060405250810190613a0c9190614ee5565b73ffffffffffffffffffffffffffffffffffffffff168973ffffffffffffffffffffffffffffffffffffffff16145b613aa1576040517f08c379a000000000000000000000000000000000000000000000000000000000815260206004820152601160248201527f5a61703a2057726f6e6720746f6b656e300000000000000000000000000000006044820152606401610696565b8473ffffffffffffffffffffffffffffffffffffffff16630dfe16816040518163ffffffff1660e01b815260040160206040518083038186803b158015613ae757600080fd5b505afa158015613afb573d6000803e3d6000fd5b505050506040513d601f19601f82011682018060405250810190613b1f9190614ee5565b73ffffffffffffffffffffffffffffffffffffffff168873ffffffffffffffffffffffffffffffffffffffff161480613c0057508473ffffffffffffffffffffffffffffffffffffffff1663d21220a76040518163ffffffff1660e01b815260040160206040518083038186803b158015613b9957600080fd5b505afa158015613bad573d6000803e3d6000fd5b505050506040513d601f19601f82011682018060405250810190613bd19190614ee5565b73ffffffffffffffffffffffffffffffffffffffff168873ffffffffffffffffffffffffffffffffffffffff16145b613c66576040517f08c379a000000000000000000000000000000000000000000000000000000000815260206004820152601160248201527f5a61703a2057726f6e6720746f6b656e310000000000000000000000000000006044820152606401610696565b8773ffffffffffffffffffffffffffffffffffffffff168973ffffffffffffffffffffffffffffffffffffffff161415613cfc576040517f08c379a000000000000000000000000000000000000000000000000000000000815260206004820152601060248201527f5a61703a2053616d6520746f6b656e73000000000000000000000000000000006044820152606401610696565b60008060008773ffffffffffffffffffffffffffffffffffffffff16630902f1ac6040518163ffffffff1660e01b815260040160606040518083038186803b158015613d4757600080fd5b505afa158015613d5b573d6000803e3d6000fd5b505050506040513d601f19601f82011682018060405250810190613d7f919061526f565b506dffffffffffffffffffffffffffff1691506dffffffffffffffffffffffffffff1691506103e88210158015613db857506103e88110155b613e1e576040517f08c379a000000000000000000000000000000000000000000000000000000000815260206004820152601560248201527f5a61703a20526573657276657320746f6f206c6f7700000000000000000000006044820152606401610696565b8773ffffffffffffffffffffffffffffffffffffffff16630dfe16816040518163ffffffff1660e01b815260040160206040518083038186803b158015613e6457600080fd5b505afa158015613e78573d6000803e3d6000fd5b505050506040513d601f19601f82011682018060405250810190613e9c9190614ee5565b73ffffffffffffffffffffffffffffffffffffffff168c73ffffffffffffffffffffffffffffffffffffffff161415613f5957613edc8a8a8484896133f9565b600454909350613eec8484615441565b1015613f54576040517f08c379a000000000000000000000000000000000000000000000000000000000815260206004820152601f60248201527f5a61703a205175616e7469747920686967686572207468616e206c696d6974006044820152606401610696565b613fde565b613f668a8a8385896133f9565b600454909350613f768483615441565b1015613fde576040517f08c379a000000000000000000000000000000000000000000000000000000000815260206004820152601f60248201527f5a61703a205175616e7469747920686967686572207468616e206c696d6974006044820152606401610696565b50508481111561404a576040517f08c379a000000000000000000000000000000000000000000000000000000000815260206004820152601c60248201527f5a61703a20416d6f756e7420746f207377617020746f6f2068696768000000006044820152606401610696565b6040805160028082526060820183526000926020830190803683370190505090508315614169578a816000815181106140ac577f4e487b7100000000000000000000000000000000000000000000000000000000600052603260045260246000fd5b602002602001019073ffffffffffffffffffffffffffffffffffffffff16908173ffffffffffffffffffffffffffffffffffffffff16815250508981600181518110614121577f4e487b7100000000000000000000000000000000000000000000000000000000600052603260045260246000fd5b602002602001019073ffffffffffffffffffffffffffffffffffffffff16908173ffffffffffffffffffffffffffffffffffffffff16815250506141648b614a19565b61425c565b89816000815181106141a4577f4e487b7100000000000000000000000000000000000000000000000000000000600052603260045260246000fd5b602002602001019073ffffffffffffffffffffffffffffffffffffffff16908173ffffffffffffffffffffffffffffffffffffffff16815250508a81600181518110614219577f4e487b7100000000000000000000000000000000000000000000000000000000600052603260045260246000fd5b602002602001019073ffffffffffffffffffffffffffffffffffffffff16908173ffffffffffffffffffffffffffffffffffffffff168152505061425c8a614a19565b6003546040517f38ed173900000000000000000000000000000000000000000000000000000000815260009173ffffffffffffffffffffffffffffffffffffffff16906338ed1739906142bb9086908a9087903090429060040161539f565b600060405180830381600087803b1580156142d557600080fd5b505af11580156142e9573d6000803e3d6000fd5b505050506040513d6000823e601f3d9081017fffffffffffffffffffffffffffffffffffffffffffffffffffffffffffffffe016820160405261432f9190810190615175565b90508415614556576143408b614a19565b600354825173ffffffffffffffffffffffffffffffffffffffff9091169063e8e3370090849060009061439c577f4e487b7100000000000000000000000000000000000000000000000000000000600052603260045260246000fd5b6020026020010151846001815181106143de577f4e487b7100000000000000000000000000000000000000000000000000000000600052603260045260246000fd5b602002602001015184600081518110614420577f4e487b7100000000000000000000000000000000000000000000000000000000600052603260045260246000fd5b60200260200101518e61443391906154b7565b8560018151811061446d577f4e487b7100000000000000000000000000000000000000000000000000000000600052603260045260246000fd5b60200260200101518e6144809190615429565b6040517fffffffff0000000000000000000000000000000000000000000000000000000060e087901b16815273ffffffffffffffffffffffffffffffffffffffff94851660048201529390921660248401526044830152606482015260016084820181905260a48201523360c48201524260e482015261010401606060405180830381600087803b15801561451457600080fd5b505af1158015614528573d6000803e3d6000fd5b505050506040513d601f19601f8201168201806040525081019061454c9190615305565b9550614770915050565b61455f8c614a19565b600354825173ffffffffffffffffffffffffffffffffffffffff9091169063e8e337009084906000906145bb577f4e487b7100000000000000000000000000000000000000000000000000000000600052603260045260246000fd5b6020026020010151846001815181106145fd577f4e487b7100000000000000000000000000000000000000000000000000000000600052603260045260246000fd5b60200260200101518460008151811061463f577f4e487b7100000000000000000000000000000000000000000000000000000000600052603260045260246000fd5b60200260200101518d61465291906154b7565b8560018151811061468c577f4e487b7100000000000000000000000000000000000000000000000000000000600052603260045260246000fd5b60200260200101518f61469f9190615429565b6040517fffffffff0000000000000000000000000000000000000000000000000000000060e087901b16815273ffffffffffffffffffffffffffffffffffffffff94851660048201529390921660248401526044830152606482015260016084820181905260a48201523360c48201524260e482015261010401606060405180830381600087803b15801561473357600080fd5b505af1158015614747573d6000803e3d6000fd5b505050506040513d601f19601f8201168201806040525081019061476b9190615305565b955050505b50505098975050505050505050565b60008161478e57506000919050565b81600170010000000000000000000000000000000082106147b45760809190911c9060401b5b6801000000000000000082106147cf5760409190911c9060201b5b64010000000082106147e65760209190911c9060101b5b6201000082106147fb5760109190911c9060081b5b610100821061480f5760089190911c9060041b5b601082106148225760049190911c9060021b5b6008821061482e5760011b5b600161483a8286615441565b6148449083615429565b901c905060016148548286615441565b61485e9083615429565b901c9050600161486e8286615441565b6148789083615429565b901c905060016148888286615441565b6148929083615429565b901c905060016148a28286615441565b6148ac9083615429565b901c905060016148bc8286615441565b6148c69083615429565b901c905060016148d68286615441565b6148e09083615429565b901c905060006148f08286615441565b90508082106148ff5780614901565b815b95945050505050565b600061496c826040518060400160405280602081526020017f5361666545524332303a206c6f772d6c6576656c2063616c6c206661696c65648152508573ffffffffffffffffffffffffffffffffffffffff16614b1a9092919063ffffffff16565b905080516000148061498d57508080602001905181019061498d9190615253565b61121a576040517f08c379a000000000000000000000000000000000000000000000000000000000815260206004820152602a60248201527f5361666545524332303a204552433230206f7065726174696f6e20646964206e60448201527f6f742073756363656564000000000000000000000000000000000000000000006064820152608401610696565b6005546040517fdd62ed3e00000000000000000000000000000000000000000000000000000000815230600482015273ffffffffffffffffffffffffffffffffffffffff918216602482015269d3c21bcecceda10000009183169063dd62ed3e9060440160206040518083038186803b158015614a9557600080fd5b505afa158015614aa9573d6000803e3d6000fd5b505050506040513d601f19601f82011682018060405250810190614acd91906152ca565b1015611ec957600554611ec99073ffffffffffffffffffffffffffffffffffffffff83811691167fffffffffffffffffffffffffffffffffffffffffffffffffffffffffffffffff614b29565b6060612b908484600085614cba565b801580614bd857506040517fdd62ed3e00000000000000000000000000000000000000000000000000000000815230600482015273ffffffffffffffffffffffffffffffffffffffff838116602483015284169063dd62ed3e9060440160206040518083038186803b158015614b9e57600080fd5b505afa158015614bb2573d6000803e3d6000fd5b505050506040513d601f19601f82011682018060405250810190614bd691906152ca565b155b614c64576040517f08c379a000000000000000000000000000000000000000000000000000000000815260206004820152603660248201527f5361666545524332303a20617070726f76652066726f6d206e6f6e2d7a65726f60448201527f20746f206e6f6e2d7a65726f20616c6c6f77616e6365000000000000000000006064820152608401610696565b60405173ffffffffffffffffffffffffffffffffffffffff831660248201526044810182905261121a9084907f095ea7b3000000000000000000000000000000000000000000000000000000009060640161216f565b606082471015614d4c576040517f08c379a000000000000000000000000000000000000000000000000000000000815260206004820152602660248201527f416464726573733a20696e73756666696369656e742062616c616e636520666f60448201527f722063616c6c00000000000000000000000000000000000000000000000000006064820152608401610696565b6000808673ffffffffffffffffffffffffffffffffffffffff168587604051614d759190615332565b60006040518083038185875af1925050503d8060008114614db2576040519150601f19603f3d011682016040523d82523d6000602084013e614db7565b606091505b50915091506121128783838760608315614e56578251614e4f5773ffffffffffffffffffffffffffffffffffffffff85163b614e4f576040517f08c379a000000000000000000000000000000000000000000000000000000000815260206004820152601d60248201527f416464726573733a2063616c6c20746f206e6f6e2d636f6e74726163740000006044820152606401610696565b5081612b90565b612b908383815115614e6b5781518083602001fd5b806040517f08c379a0000000000000000000000000000000000000000000000000000000008152600401610696919061534e565b80516dffffffffffffffffffffffffffff81168114614ebd57600080fd5b919050565b600060208284031215614ed3578081fd5b8135614ede81615558565b9392505050565b600060208284031215614ef6578081fd5b8151614ede81615558565b60008060008060808587031215614f16578283fd5b8435614f2181615558565b93506020850135614f3181615558565b93969395505050506040820135916060013590565b600080600080600060a08688031215614f5d578081fd5b8535614f6881615558565b94506020860135614f7881615558565b935060408601359250606086013591506080860135614f9681615558565b809150509295509295909350565b600080600080600080600080610100898b031215614fc0578283fd5b8835614fcb81615558565b97506020890135614fdb81615558565b965060408901359550606089013594506080890135614ff981615558565b935060a0890135925060c0890135915060e08901356150178161557a565b809150509295985092959890939650565b6000806040838503121561503a578182fd5b823561504581615558565b946020939093013593505050565b600080600060608486031215615067578283fd5b833561507281615558565b925060208401359150604084013561508981615558565b809150509250925092565b600080600080608085870312156150a9578384fd5b84356150b481615558565b93506020850135925060408501356150cb81615558565b9396929550929360600135925050565b60008060008060008060c087890312156150f3578182fd5b86356150fe81615558565b955060208701359450604087013561511581615558565b9350606087013592506080870135915060a08701356151338161557a565b809150509295509295509295565b600080600060608486031215615155578081fd5b833561516081615558565b95602085013595506040909401359392505050565b60006020808385031215615187578182fd5b825167ffffffffffffffff8082111561519e578384fd5b818501915085601f8301126151b1578384fd5b8151818111156151c3576151c3615529565b8060051b6040517fffffffffffffffffffffffffffffffffffffffffffffffffffffffffffffffe0603f8301168101818110858211171561520657615206615529565b604052828152858101935084860182860187018a1015615224578788fd5b8795505b83861015615246578051855260019590950194938601938601615228565b5098975050505050505050565b600060208284031215615264578081fd5b8151614ede8161557a565b600080600060608486031215615283578081fd5b61528c84614e9f565b925061529a60208501614e9f565b9150604084015163ffffffff81168114615089578182fd5b6000602082840312156152c3578081fd5b5035919050565b6000602082840312156152db578081fd5b5051919050565b600080604083850312156152f4578182fd5b505080516020909101519092909150565b600080600060608486031215615319578081fd5b8351925060208401519150604084015190509250925092565b600082516153448184602087016154ce565b9190910192915050565b602081526000825180602084015261536d8160408501602087016154ce565b601f017fffffffffffffffffffffffffffffffffffffffffffffffffffffffffffffffe0169190910160400192915050565b600060a082018783526020878185015260a0604085015281875180845260c0860191508289019350845b818110156153fb57845173ffffffffffffffffffffffffffffffffffffffff16835293830193918301916001016153c9565b505073ffffffffffffffffffffffffffffffffffffffff969096166060850152505050608001529392505050565b6000821982111561543c5761543c6154fa565b500190565b600082615475577f4e487b710000000000000000000000000000000000000000000000000000000081526012600452602481fd5b500490565b6000817fffffffffffffffffffffffffffffffffffffffffffffffffffffffffffffffff04831182151516156154b2576154b26154fa565b500290565b6000828210156154c9576154c96154fa565b500390565b60005b838110156154e95781810151838201526020016154d1565b83811115611b225750506000910152565b7f4e487b7100000000000000000000000000000000000000000000000000000000600052601160045260246000fd5b7f4e487b7100000000000000000000000000000000000000000000000000000000600052604160045260246000fd5b73ffffffffffffffffffffffffffffffffffffffff81168114611ec957600080fd5b8015158114611ec957600080fdfea2646970667358221220555e10d094699ee13201509ba0849957bd0180b67906c4479653de99e8361f3e64736f6c63430008040033",
  "linkReferences": {},
  "deployedLinkReferences": {}
}