{
  "_format": "hh-sol-artifact-1",
  "contractName": "PancakeRouter",
  "sourceName": "contracts/PancakeRouter.sol",
  "abi": [
    {
      "inputs": [
        {
          "internalType": "address",
          "name": "_factory",
          "type": "address"
        },
        {
          "internalType": "address",
          "name": "_WETH",
          "type": "address"
        }
      ],
      "stateMutability": "nonpayable",
      "type": "constructor"
    },
    {
      "inputs": [],
      "name": "WETH",
      "outputs": [
        {
          "internalType": "address",
          "name": "",
          "type": "address"
        }
      ],
      "stateMutability": "view",
      "type": "function"
    },
    {
      "inputs": [
        {
          "internalType": "address",
          "name": "tokenA",
          "type": "address"
        },
        {
          "internalType": "address",
          "name": "tokenB",
          "type": "address"
        },
        {
          "internalType": "uint256",
          "name": "amountADesired",
          "type": "uint256"
        },
        {
          "internalType": "uint256",
          "name": "amountBDesired",
          "type": "uint256"
        },
        {
          "internalType": "uint256",
          "name": "amountAMin",
          "type": "uint256"
        },
        {
          "internalType": "uint256",
          "name": "amountBMin",
          "type": "uint256"
        },
        {
          "internalType": "address",
          "name": "to",
          "type": "address"
        },
        {
          "internalType": "uint256",
          "name": "deadline",
          "type": "uint256"
        }
      ],
      "name": "addLiquidity",
      "outputs": [
        {
          "internalType": "uint256",
          "name": "amountA",
          "type": "uint256"
        },
        {
          "internalType": "uint256",
          "name": "amountB",
          "type": "uint256"
        },
        {
          "internalType": "uint256",
          "name": "liquidity",
          "type": "uint256"
        }
      ],
      "stateMutability": "nonpayable",
      "type": "function"
    },
    {
      "inputs": [
        {
          "internalType": "address",
          "name": "token",
          "type": "address"
        },
        {
          "internalType": "uint256",
          "name": "amountTokenDesired",
          "type": "uint256"
        },
        {
          "internalType": "uint256",
          "name": "amountTokenMin",
          "type": "uint256"
        },
        {
          "internalType": "uint256",
          "name": "amountETHMin",
          "type": "uint256"
        },
        {
          "internalType": "address",
          "name": "to",
          "type": "address"
        },
        {
          "internalType": "uint256",
          "name": "deadline",
          "type": "uint256"
        }
      ],
      "name": "addLiquidityETH",
      "outputs": [
        {
          "internalType": "uint256",
          "name": "amountToken",
          "type": "uint256"
        },
        {
          "internalType": "uint256",
          "name": "amountETH",
          "type": "uint256"
        },
        {
          "internalType": "uint256",
          "name": "liquidity",
          "type": "uint256"
        }
      ],
      "stateMutability": "payable",
      "type": "function"
    },
    {
      "inputs": [],
      "name": "factory",
      "outputs": [
        {
          "internalType": "address",
          "name": "",
          "type": "address"
        }
      ],
      "stateMutability": "view",
      "type": "function"
    },
    {
      "inputs": [
        {
          "internalType": "uint256",
          "name": "amountOut",
          "type": "uint256"
        },
        {
          "internalType": "uint256",
          "name": "reserveIn",
          "type": "uint256"
        },
        {
          "internalType": "uint256",
          "name": "reserveOut",
          "type": "uint256"
        }
      ],
      "name": "getAmountIn",
      "outputs": [
        {
          "internalType": "uint256",
          "name": "amountIn",
          "type": "uint256"
        }
      ],
      "stateMutability": "pure",
      "type": "function"
    },
    {
      "inputs": [
        {
          "internalType": "uint256",
          "name": "amountIn",
          "type": "uint256"
        },
        {
          "internalType": "uint256",
          "name": "reserveIn",
          "type": "uint256"
        },
        {
          "internalType": "uint256",
          "name": "reserveOut",
          "type": "uint256"
        }
      ],
      "name": "getAmountOut",
      "outputs": [
        {
          "internalType": "uint256",
          "name": "amountOut",
          "type": "uint256"
        }
      ],
      "stateMutability": "pure",
      "type": "function"
    },
    {
      "inputs": [
        {
          "internalType": "uint256",
          "name": "amountOut",
          "type": "uint256"
        },
        {
          "internalType": "address[]",
          "name": "path",
          "type": "address[]"
        }
      ],
      "name": "getAmountsIn",
      "outputs": [
        {
          "internalType": "uint256[]",
          "name": "amounts",
          "type": "uint256[]"
        }
      ],
      "stateMutability": "view",
      "type": "function"
    },
    {
      "inputs": [
        {
          "internalType": "uint256",
          "name": "amountIn",
          "type": "uint256"
        },
        {
          "internalType": "address[]",
          "name": "path",
          "type": "address[]"
        }
      ],
      "name": "getAmountsOut",
      "outputs": [
        {
          "internalType": "uint256[]",
          "name": "amounts",
          "type": "uint256[]"
        }
      ],
      "stateMutability": "view",
      "type": "function"
    },
    {
      "inputs": [],
      "name": "networkNodes",
      "outputs": [
        {
          "internalType": "address",
          "name": "",
          "type": "address"
        }
      ],
      "stateMutability": "view",
      "type": "function"
    },
    {
      "inputs": [
        {
          "internalType": "uint256",
          "name": "amountA",
          "type": "uint256"
        },
        {
          "internalType": "uint256",
          "name": "reserveA",
          "type": "uint256"
        },
        {
          "internalType": "uint256",
          "name": "reserveB",
          "type": "uint256"
        }
      ],
      "name": "quote",
      "outputs": [
        {
          "internalType": "uint256",
          "name": "amountB",
          "type": "uint256"
        }
      ],
      "stateMutability": "pure",
      "type": "function"
    },
    {
      "inputs": [
        {
          "internalType": "address",
          "name": "tokenA",
          "type": "address"
        },
        {
          "internalType": "address",
          "name": "tokenB",
          "type": "address"
        },
        {
          "internalType": "uint256",
          "name": "liquidity",
          "type": "uint256"
        },
        {
          "internalType": "uint256",
          "name": "amountAMin",
          "type": "uint256"
        },
        {
          "internalType": "uint256",
          "name": "amountBMin",
          "type": "uint256"
        },
        {
          "internalType": "address",
          "name": "to",
          "type": "address"
        },
        {
          "internalType": "uint256",
          "name": "deadline",
          "type": "uint256"
        }
      ],
      "name": "removeLiquidity",
      "outputs": [
        {
          "internalType": "uint256",
          "name": "amountA",
          "type": "uint256"
        },
        {
          "internalType": "uint256",
          "name": "amountB",
          "type": "uint256"
        }
      ],
      "stateMutability": "nonpayable",
      "type": "function"
    },
    {
      "inputs": [
        {
          "internalType": "address",
          "name": "token",
          "type": "address"
        },
        {
          "internalType": "uint256",
          "name": "liquidity",
          "type": "uint256"
        },
        {
          "internalType": "uint256",
          "name": "amountTokenMin",
          "type": "uint256"
        },
        {
          "internalType": "uint256",
          "name": "amountETHMin",
          "type": "uint256"
        },
        {
          "internalType": "address",
          "name": "to",
          "type": "address"
        },
        {
          "internalType": "uint256",
          "name": "deadline",
          "type": "uint256"
        }
      ],
      "name": "removeLiquidityETH",
      "outputs": [
        {
          "internalType": "uint256",
          "name": "amountToken",
          "type": "uint256"
        },
        {
          "internalType": "uint256",
          "name": "amountETH",
          "type": "uint256"
        }
      ],
      "stateMutability": "nonpayable",
      "type": "function"
    },
    {
      "inputs": [
        {
          "internalType": "address",
          "name": "token",
          "type": "address"
        },
        {
          "internalType": "uint256",
          "name": "liquidity",
          "type": "uint256"
        },
        {
          "internalType": "uint256",
          "name": "amountTokenMin",
          "type": "uint256"
        },
        {
          "internalType": "uint256",
          "name": "amountETHMin",
          "type": "uint256"
        },
        {
          "internalType": "address",
          "name": "to",
          "type": "address"
        },
        {
          "internalType": "uint256",
          "name": "deadline",
          "type": "uint256"
        }
      ],
      "name": "removeLiquidityETHSupportingFeeOnTransferTokens",
      "outputs": [
        {
          "internalType": "uint256",
          "name": "amountETH",
          "type": "uint256"
        }
      ],
      "stateMutability": "nonpayable",
      "type": "function"
    },
    {
      "inputs": [
        {
          "internalType": "address",
          "name": "token",
          "type": "address"
        },
        {
          "internalType": "uint256",
          "name": "liquidity",
          "type": "uint256"
        },
        {
          "internalType": "uint256",
          "name": "amountTokenMin",
          "type": "uint256"
        },
        {
          "internalType": "uint256",
          "name": "amountETHMin",
          "type": "uint256"
        },
        {
          "internalType": "address",
          "name": "to",
          "type": "address"
        },
        {
          "internalType": "uint256",
          "name": "deadline",
          "type": "uint256"
        },
        {
          "internalType": "bool",
          "name": "approveMax",
          "type": "bool"
        },
        {
          "internalType": "uint8",
          "name": "v",
          "type": "uint8"
        },
        {
          "internalType": "bytes32",
          "name": "r",
          "type": "bytes32"
        },
        {
          "internalType": "bytes32",
          "name": "s",
          "type": "bytes32"
        }
      ],
      "name": "removeLiquidityETHWithPermit",
      "outputs": [
        {
          "internalType": "uint256",
          "name": "amountToken",
          "type": "uint256"
        },
        {
          "internalType": "uint256",
          "name": "amountETH",
          "type": "uint256"
        }
      ],
      "stateMutability": "nonpayable",
      "type": "function"
    },
    {
      "inputs": [
        {
          "internalType": "address",
          "name": "token",
          "type": "address"
        },
        {
          "internalType": "uint256",
          "name": "liquidity",
          "type": "uint256"
        },
        {
          "internalType": "uint256",
          "name": "amountTokenMin",
          "type": "uint256"
        },
        {
          "internalType": "uint256",
          "name": "amountETHMin",
          "type": "uint256"
        },
        {
          "internalType": "address",
          "name": "to",
          "type": "address"
        },
        {
          "internalType": "uint256",
          "name": "deadline",
          "type": "uint256"
        },
        {
          "internalType": "bool",
          "name": "approveMax",
          "type": "bool"
        },
        {
          "internalType": "uint8",
          "name": "v",
          "type": "uint8"
        },
        {
          "internalType": "bytes32",
          "name": "r",
          "type": "bytes32"
        },
        {
          "internalType": "bytes32",
          "name": "s",
          "type": "bytes32"
        }
      ],
      "name": "removeLiquidityETHWithPermitSupportingFeeOnTransferTokens",
      "outputs": [
        {
          "internalType": "uint256",
          "name": "amountETH",
          "type": "uint256"
        }
      ],
      "stateMutability": "nonpayable",
      "type": "function"
    },
    {
      "inputs": [
        {
          "internalType": "address",
          "name": "tokenA",
          "type": "address"
        },
        {
          "internalType": "address",
          "name": "tokenB",
          "type": "address"
        },
        {
          "internalType": "uint256",
          "name": "liquidity",
          "type": "uint256"
        },
        {
          "internalType": "uint256",
          "name": "amountAMin",
          "type": "uint256"
        },
        {
          "internalType": "uint256",
          "name": "amountBMin",
          "type": "uint256"
        },
        {
          "internalType": "address",
          "name": "to",
          "type": "address"
        },
        {
          "internalType": "uint256",
          "name": "deadline",
          "type": "uint256"
        },
        {
          "internalType": "bool",
          "name": "approveMax",
          "type": "bool"
        },
        {
          "internalType": "uint8",
          "name": "v",
          "type": "uint8"
        },
        {
          "internalType": "bytes32",
          "name": "r",
          "type": "bytes32"
        },
        {
          "internalType": "bytes32",
          "name": "s",
          "type": "bytes32"
        }
      ],
      "name": "removeLiquidityWithPermit",
      "outputs": [
        {
          "internalType": "uint256",
          "name": "amountA",
          "type": "uint256"
        },
        {
          "internalType": "uint256",
          "name": "amountB",
          "type": "uint256"
        }
      ],
      "stateMutability": "nonpayable",
      "type": "function"
    },
    {
      "inputs": [
        {
          "internalType": "uint256",
          "name": "amountOut",
          "type": "uint256"
        },
        {
          "internalType": "address[]",
          "name": "path",
          "type": "address[]"
        },
        {
          "internalType": "address",
          "name": "to",
          "type": "address"
        },
        {
          "internalType": "uint256",
          "name": "deadline",
          "type": "uint256"
        }
      ],
      "name": "swapETHForExactTokens",
      "outputs": [
        {
          "internalType": "uint256[]",
          "name": "amounts",
          "type": "uint256[]"
        }
      ],
      "stateMutability": "payable",
      "type": "function"
    },
    {
      "inputs": [
        {
          "internalType": "uint256",
          "name": "amountOutMin",
          "type": "uint256"
        },
        {
          "internalType": "address[]",
          "name": "path",
          "type": "address[]"
        },
        {
          "internalType": "address",
          "name": "to",
          "type": "address"
        },
        {
          "internalType": "uint256",
          "name": "deadline",
          "type": "uint256"
        }
      ],
      "name": "swapExactETHForTokens",
      "outputs": [
        {
          "internalType": "uint256[]",
          "name": "amounts",
          "type": "uint256[]"
        }
      ],
      "stateMutability": "payable",
      "type": "function"
    },
    {
      "inputs": [
        {
          "internalType": "uint256",
          "name": "amountOutMin",
          "type": "uint256"
        },
        {
          "internalType": "address[]",
          "name": "path",
          "type": "address[]"
        },
        {
          "internalType": "address",
          "name": "to",
          "type": "address"
        },
        {
          "internalType": "uint256",
          "name": "deadline",
          "type": "uint256"
        }
      ],
      "name": "swapExactETHForTokensSupportingFeeOnTransferTokens",
      "outputs": [],
      "stateMutability": "payable",
      "type": "function"
    },
    {
      "inputs": [
        {
          "internalType": "uint256",
          "name": "amountIn",
          "type": "uint256"
        },
        {
          "internalType": "uint256",
          "name": "amountOutMin",
          "type": "uint256"
        },
        {
          "internalType": "address[]",
          "name": "path",
          "type": "address[]"
        },
        {
          "internalType": "address",
          "name": "to",
          "type": "address"
        },
        {
          "internalType": "uint256",
          "name": "deadline",
          "type": "uint256"
        }
      ],
      "name": "swapExactTokensForETH",
      "outputs": [
        {
          "internalType": "uint256[]",
          "name": "amounts",
          "type": "uint256[]"
        }
      ],
      "stateMutability": "nonpayable",
      "type": "function"
    },
    {
      "inputs": [
        {
          "internalType": "uint256",
          "name": "amountIn",
          "type": "uint256"
        },
        {
          "internalType": "uint256",
          "name": "amountOutMin",
          "type": "uint256"
        },
        {
          "internalType": "address[]",
          "name": "path",
          "type": "address[]"
        },
        {
          "internalType": "address",
          "name": "to",
          "type": "address"
        },
        {
          "internalType": "uint256",
          "name": "deadline",
          "type": "uint256"
        }
      ],
      "name": "swapExactTokensForETHSupportingFeeOnTransferTokens",
      "outputs": [],
      "stateMutability": "nonpayable",
      "type": "function"
    },
    {
      "inputs": [
        {
          "internalType": "uint256",
          "name": "amountIn",
          "type": "uint256"
        },
        {
          "internalType": "uint256",
          "name": "amountOutMin",
          "type": "uint256"
        },
        {
          "internalType": "address[]",
          "name": "path",
          "type": "address[]"
        },
        {
          "internalType": "address",
          "name": "to",
          "type": "address"
        },
        {
          "internalType": "uint256",
          "name": "deadline",
          "type": "uint256"
        }
      ],
      "name": "swapExactTokensForTokens",
      "outputs": [
        {
          "internalType": "uint256[]",
          "name": "amounts",
          "type": "uint256[]"
        }
      ],
      "stateMutability": "nonpayable",
      "type": "function"
    },
    {
      "inputs": [
        {
          "internalType": "uint256",
          "name": "amountIn",
          "type": "uint256"
        },
        {
          "internalType": "uint256",
          "name": "amountOutMin",
          "type": "uint256"
        },
        {
          "internalType": "address[]",
          "name": "path",
          "type": "address[]"
        },
        {
          "internalType": "address",
          "name": "to",
          "type": "address"
        },
        {
          "internalType": "uint256",
          "name": "deadline",
          "type": "uint256"
        }
      ],
      "name": "swapExactTokensForTokensSupportingFeeOnTransferTokens",
      "outputs": [],
      "stateMutability": "nonpayable",
      "type": "function"
    },
    {
      "inputs": [
        {
          "internalType": "uint256",
          "name": "amountOut",
          "type": "uint256"
        },
        {
          "internalType": "uint256",
          "name": "amountInMax",
          "type": "uint256"
        },
        {
          "internalType": "address[]",
          "name": "path",
          "type": "address[]"
        },
        {
          "internalType": "address",
          "name": "to",
          "type": "address"
        },
        {
          "internalType": "uint256",
          "name": "deadline",
          "type": "uint256"
        }
      ],
      "name": "swapTokensForExactETH",
      "outputs": [
        {
          "internalType": "uint256[]",
          "name": "amounts",
          "type": "uint256[]"
        }
      ],
      "stateMutability": "nonpayable",
      "type": "function"
    },
    {
      "inputs": [
        {
          "internalType": "uint256",
          "name": "amountOut",
          "type": "uint256"
        },
        {
          "internalType": "uint256",
          "name": "amountInMax",
          "type": "uint256"
        },
        {
          "internalType": "address[]",
          "name": "path",
          "type": "address[]"
        },
        {
          "internalType": "address",
          "name": "to",
          "type": "address"
        },
        {
          "internalType": "uint256",
          "name": "deadline",
          "type": "uint256"
        }
      ],
      "name": "swapTokensForExactTokens",
      "outputs": [
        {
          "internalType": "uint256[]",
          "name": "amounts",
          "type": "uint256[]"
        }
      ],
      "stateMutability": "nonpayable",
      "type": "function"
    },
    {
      "inputs": [],
      "name": "wallet",
      "outputs": [
        {
          "internalType": "address",
          "name": "",
          "type": "address"
        }
      ],
      "stateMutability": "view",
      "type": "function"
    },
    {
      "stateMutability": "payable",
      "type": "receive"
    }
  ],
  "bytecode": "0x60c0604052600080546001600160a01b031990811673dd027ae9f499663bd6c8a487d07c1ee34c33157f179091556001805490911673d18f3cdc3a6d3942e378771fd89e333520046dec1790553480156200005957600080fd5b506040516200598c3803806200598c833981810160405260408110156200007f57600080fd5b5080516020909101516001600160601b0319606092831b8116608052911b1660a05260805160601c60a05160601c6157bd620001cf600039806101c25280610e9d5280610ed8528061101552806112d8528061173252806119325280611e7a5280611ffe52806120ce52806121d55280612388528061241d52806126cf5280612776528061284b52806129505280612a385280612ab95280613164528061349a52806134f0528061352452806135a552806137bf528061396f5280613a04525080611107528061120552806113ab52806113e4528061158f528061182452806119105280611afd52806122bb528061245c52806126055280612af85280612e3b52806130cd52806130f65280613142528061331f52806134ce52806138a55280613a4352806144ac52806144ef528061482952806148ca5280615089528061516a52806151ea52506157bd6000f3fe6080604052600436106101a55760003560e01c80638803dbee116100e1578063c45a01551161008a578063ded9382a11610064578063ded9382a14610c31578063e8e3370014610cb1578063f305d71914610d3e578063fb3bdb4114610d91576101eb565b8063c45a015514610b50578063d06ca61f14610b65578063d4d4ba5e14610c1c576101eb565b8063af2979eb116100bb578063af2979eb146109f3578063b6f9de9514610a53578063baa2abde14610ae6576101eb565b80638803dbee14610903578063ad5c4648146109a8578063ad615dec146109bd576101eb565b80634a25d94a1161014e5780635c11d795116101285780635c11d795146106f0578063791ac947146107955780637ff36ab51461083a57806385f8c259146108cd576101eb565b80634a25d94a1461058d578063521eb273146106325780635b0d598414610670576101eb565b80631f00ca741161017f5780631f00ca74146103a65780632195995c1461045d57806338ed1739146104e8576101eb565b806302751cec146101f0578063054d50d41461026957806318cbafe5146102b1576101eb565b366101eb573373ffffffffffffffffffffffffffffffffffffffff7f000000000000000000000000000000000000000000000000000000000000000016146101e957fe5b005b600080fd5b3480156101fc57600080fd5b50610250600480360360c081101561021357600080fd5b5073ffffffffffffffffffffffffffffffffffffffff81358116916020810135916040820135916060810135916080820135169060a00135610e24565b6040805192835260208301919091528051918290030190f35b34801561027557600080fd5b5061029f6004803603606081101561028c57600080fd5b5080359060208101359060400135610f77565b60408051918252519081900360200190f35b3480156102bd57600080fd5b50610356600480360360a08110156102d457600080fd5b8135916020810135918101906060810160408201356401000000008111156102fb57600080fd5b82018360208201111561030d57600080fd5b8035906020019184602083028401116401000000008311171561032f57600080fd5b919350915073ffffffffffffffffffffffffffffffffffffffff8135169060200135610f8c565b60408051602080825283518183015283519192839290830191858101910280838360005b8381101561039257818101518382015260200161037a565b505050509050019250505060405180910390f35b3480156103b257600080fd5b50610356600480360360408110156103c957600080fd5b813591908101906040810160208201356401000000008111156103eb57600080fd5b8201836020820111156103fd57600080fd5b8035906020019184602083028401116401000000008311171561041f57600080fd5b9190808060200260200160405190810160405280939291908181526020018383602002808284376000920191909152509295506113a4945050505050565b34801561046957600080fd5b50610250600480360361016081101561048157600080fd5b5073ffffffffffffffffffffffffffffffffffffffff8135811691602081013582169160408201359160608101359160808201359160a08101359091169060c08101359060e081013515159060ff61010082013516906101208101359061014001356113da565b3480156104f457600080fd5b50610356600480360360a081101561050b57600080fd5b81359160208101359181019060608101604082013564010000000081111561053257600080fd5b82018360208201111561054457600080fd5b8035906020019184602083028401116401000000008311171561056657600080fd5b919350915073ffffffffffffffffffffffffffffffffffffffff8135169060200135611518565b34801561059957600080fd5b50610356600480360360a08110156105b057600080fd5b8135916020810135918101906060810160408201356401000000008111156105d757600080fd5b8201836020820111156105e957600080fd5b8035906020019184602083028401116401000000008311171561060b57600080fd5b919350915073ffffffffffffffffffffffffffffffffffffffff81351690602001356116a9565b34801561063e57600080fd5b506106476118ec565b6040805173ffffffffffffffffffffffffffffffffffffffff9092168252519081900360200190f35b34801561067c57600080fd5b5061029f600480360361014081101561069457600080fd5b5073ffffffffffffffffffffffffffffffffffffffff81358116916020810135916040820135916060810135916080820135169060a08101359060c081013515159060ff60e08201351690610100810135906101200135611908565b3480156106fc57600080fd5b506101e9600480360360a081101561071357600080fd5b81359160208101359181019060608101604082013564010000000081111561073a57600080fd5b82018360208201111561074c57600080fd5b8035906020019184602083028401116401000000008311171561076e57600080fd5b919350915073ffffffffffffffffffffffffffffffffffffffff8135169060200135611a5a565b3480156107a157600080fd5b506101e9600480360360a08110156107b857600080fd5b8135916020810135918101906060810160408201356401000000008111156107df57600080fd5b8201836020820111156107f157600080fd5b8035906020019184602083028401116401000000008311171561081357600080fd5b919350915073ffffffffffffffffffffffffffffffffffffffff8135169060200135611df3565b6103566004803603608081101561085057600080fd5b8135919081019060408101602082013564010000000081111561087257600080fd5b82018360208201111561088457600080fd5b803590602001918460208302840111640100000000831117156108a657600080fd5b919350915073ffffffffffffffffffffffffffffffffffffffff8135169060200135612161565b3480156108d957600080fd5b5061029f600480360360608110156108f057600080fd5b5080359060208101359060400135612581565b34801561090f57600080fd5b50610356600480360360a081101561092657600080fd5b81359160208101359181019060608101604082013564010000000081111561094d57600080fd5b82018360208201111561095f57600080fd5b8035906020019184602083028401116401000000008311171561098157600080fd5b919350915073ffffffffffffffffffffffffffffffffffffffff813516906020013561258e565b3480156109b457600080fd5b506106476126cd565b3480156109c957600080fd5b5061029f600480360360608110156109e057600080fd5b50803590602081013590604001356126f1565b3480156109ff57600080fd5b5061029f600480360360c0811015610a1657600080fd5b5073ffffffffffffffffffffffffffffffffffffffff81358116916020810135916040820135916060810135916080820135169060a001356126fe565b6101e960048036036080811015610a6957600080fd5b81359190810190604081016020820135640100000000811115610a8b57600080fd5b820183602082011115610a9d57600080fd5b80359060200191846020830284011164010000000083111715610abf57600080fd5b919350915073ffffffffffffffffffffffffffffffffffffffff81351690602001356128de565b348015610af257600080fd5b50610250600480360360e0811015610b0957600080fd5b5073ffffffffffffffffffffffffffffffffffffffff8135811691602081013582169160408201359160608101359160808201359160a08101359091169060c00135612dc1565b348015610b5c57600080fd5b506106476130cb565b348015610b7157600080fd5b5061035660048036036040811015610b8857600080fd5b81359190810190604081016020820135640100000000811115610baa57600080fd5b820183602082011115610bbc57600080fd5b80359060200191846020830284011164010000000083111715610bde57600080fd5b9190808060200260200160405190810160405280939291908181526020018383602002808284376000920191909152509295506130ef945050505050565b348015610c2857600080fd5b5061064761311c565b348015610c3d57600080fd5b506102506004803603610140811015610c5557600080fd5b5073ffffffffffffffffffffffffffffffffffffffff81358116916020810135916040820135916060810135916080820135169060a08101359060c081013515159060ff60e08201351690610100810135906101200135613138565b348015610cbd57600080fd5b50610d206004803603610100811015610cd557600080fd5b5073ffffffffffffffffffffffffffffffffffffffff8135811691602081013582169160408201359160608101359160808201359160a08101359160c0820135169060e00135613290565b60408051938452602084019290925282820152519081900360600190f35b610d20600480360360c0811015610d5457600080fd5b5073ffffffffffffffffffffffffffffffffffffffff81358116916020810135916040820135916060810135916080820135169060a0013561341f565b61035660048036036080811015610da757600080fd5b81359190810190604081016020820135640100000000811115610dc957600080fd5b820183602082011115610ddb57600080fd5b80359060200191846020830284011164010000000083111715610dfd57600080fd5b919350915073ffffffffffffffffffffffffffffffffffffffff813516906020013561374b565b6000808242811015610e9757604080517f08c379a000000000000000000000000000000000000000000000000000000000815260206004820152601660248201527f50616e63616b65526f757465723a204558504952454400000000000000000000604482015290519081900360640190fd5b610ec6897f00000000000000000000000000000000000000000000000000000000000000008a8a8a308a612dc1565b9093509150610ed6898685613b9a565b7f000000000000000000000000000000000000000000000000000000000000000073ffffffffffffffffffffffffffffffffffffffff16632e1a7d4d836040518263ffffffff1660e01b815260040180828152602001915050600060405180830381600087803b158015610f4957600080fd5b505af1158015610f5d573d6000803e3d6000fd5b50505050610f6b8583613d61565b50965096945050505050565b6000610f84848484613e9e565b949350505050565b60608142811015610ffe57604080517f08c379a000000000000000000000000000000000000000000000000000000000815260206004820152601660248201527f50616e63616b65526f757465723a204558504952454400000000000000000000604482015290519081900360640190fd5b73ffffffffffffffffffffffffffffffffffffffff7f00000000000000000000000000000000000000000000000000000000000000001686867fffffffffffffffffffffffffffffffffffffffffffffffffffffffffffffffff810181811061106357fe5b9050602002013573ffffffffffffffffffffffffffffffffffffffff1673ffffffffffffffffffffffffffffffffffffffff161461110257604080517f08c379a000000000000000000000000000000000000000000000000000000000815260206004820152601b60248201527f50616e63616b65526f757465723a20494e56414c49445f504154480000000000604482015290519081900360640190fd5b6111607f000000000000000000000000000000000000000000000000000000000000000089888880806020026020016040519081016040528093929190818152602001838360200280828437600092019190915250613fc292505050565b9150868260018451038151811061117357fe5b602002602001015110156111d2576040517f08c379a00000000000000000000000000000000000000000000000000000000081526004018080602001828103825260298152602001806156596029913960400191505060405180910390fd5b611297868660008181106111e257fe5b9050602002013573ffffffffffffffffffffffffffffffffffffffff163361127d7f00000000000000000000000000000000000000000000000000000000000000008a8a600081811061123157fe5b9050602002013573ffffffffffffffffffffffffffffffffffffffff168b8b600181811061125b57fe5b9050602002013573ffffffffffffffffffffffffffffffffffffffff16614128565b8560008151811061128a57fe5b6020026020010151614213565b6112d6828787808060200260200160405190810160405280939291908181526020018383602002808284376000920191909152503092506143e3915050565b7f000000000000000000000000000000000000000000000000000000000000000073ffffffffffffffffffffffffffffffffffffffff16632e1a7d4d8360018551038151811061132257fe5b60200260200101516040518263ffffffff1660e01b815260040180828152602001915050600060405180830381600087803b15801561136057600080fd5b505af1158015611374573d6000803e3d6000fd5b50505050611399848360018551038151811061138c57fe5b6020026020010151613d61565b509695505050505050565b60606113d17f0000000000000000000000000000000000000000000000000000000000000000848461466a565b90505b92915050565b600080600061140a7f00000000000000000000000000000000000000000000000000000000000000008f8f614128565b9050600087611419578c61143b565b7fffffffffffffffffffffffffffffffffffffffffffffffffffffffffffffffff5b604080517fd505accf00000000000000000000000000000000000000000000000000000000815233600482015230602482015260448101839052606481018c905260ff8a16608482015260a4810189905260c48101889052905191925073ffffffffffffffffffffffffffffffffffffffff84169163d505accf9160e48082019260009290919082900301818387803b1580156114d757600080fd5b505af11580156114eb573d6000803e3d6000fd5b505050506114fe8f8f8f8f8f8f8f612dc1565b809450819550505050509b509b9950505050505050505050565b6060814281101561158a57604080517f08c379a000000000000000000000000000000000000000000000000000000000815260206004820152601660248201527f50616e63616b65526f757465723a204558504952454400000000000000000000604482015290519081900360640190fd5b6115e87f000000000000000000000000000000000000000000000000000000000000000089888880806020026020016040519081016040528093929190818152602001838360200280828437600092019190915250613fc292505050565b915086826001845103815181106115fb57fe5b6020026020010151101561165a576040517f08c379a00000000000000000000000000000000000000000000000000000000081526004018080602001828103825260298152602001806156596029913960400191505060405180910390fd5b61166a868660008181106111e257fe5b611399828787808060200260200160405190810160405280939291908181526020018383602002808284376000920191909152508992506143e3915050565b6060814281101561171b57604080517f08c379a000000000000000000000000000000000000000000000000000000000815260206004820152601660248201527f50616e63616b65526f757465723a204558504952454400000000000000000000604482015290519081900360640190fd5b73ffffffffffffffffffffffffffffffffffffffff7f00000000000000000000000000000000000000000000000000000000000000001686867fffffffffffffffffffffffffffffffffffffffffffffffffffffffffffffffff810181811061178057fe5b9050602002013573ffffffffffffffffffffffffffffffffffffffff1673ffffffffffffffffffffffffffffffffffffffff161461181f57604080517f08c379a000000000000000000000000000000000000000000000000000000000815260206004820152601b60248201527f50616e63616b65526f757465723a20494e56414c49445f504154480000000000604482015290519081900360640190fd5b61187d7f00000000000000000000000000000000000000000000000000000000000000008988888080602002602001604051908101604052809392919081815260200183836020028082843760009201919091525061466a92505050565b9150868260008151811061188d57fe5b602002602001015111156111d2576040517f08c379a00000000000000000000000000000000000000000000000000000000081526004018080602001828103825260258152602001806157196025913960400191505060405180910390fd5b60005473ffffffffffffffffffffffffffffffffffffffff1681565b6000806119567f00000000000000000000000000000000000000000000000000000000000000008d7f0000000000000000000000000000000000000000000000000000000000000000614128565b9050600086611965578b611987565b7fffffffffffffffffffffffffffffffffffffffffffffffffffffffffffffffff5b604080517fd505accf00000000000000000000000000000000000000000000000000000000815233600482015230602482015260448101839052606481018b905260ff8916608482015260a4810188905260c48101879052905191925073ffffffffffffffffffffffffffffffffffffffff84169163d505accf9160e48082019260009290919082900301818387803b158015611a2357600080fd5b505af1158015611a37573d6000803e3d6000fd5b50505050611a498d8d8d8d8d8d6126fe565b9d9c50505050505050505050505050565b8042811015611aca57604080517f08c379a000000000000000000000000000000000000000000000000000000000815260206004820152601660248201527f50616e63616b65526f757465723a204558504952454400000000000000000000604482015290519081900360640190fd5b611b5985856000818110611ada57fe5b9050602002013573ffffffffffffffffffffffffffffffffffffffff1633611b537f000000000000000000000000000000000000000000000000000000000000000089896000818110611b2957fe5b9050602002013573ffffffffffffffffffffffffffffffffffffffff168a8a600181811061125b57fe5b8a614213565b600085857fffffffffffffffffffffffffffffffffffffffffffffffffffffffffffffffff8101818110611b8957fe5b9050602002013573ffffffffffffffffffffffffffffffffffffffff1673ffffffffffffffffffffffffffffffffffffffff166370a08231856040518263ffffffff1660e01b8152600401808273ffffffffffffffffffffffffffffffffffffffff1673ffffffffffffffffffffffffffffffffffffffff16815260200191505060206040518083038186803b158015611c2257600080fd5b505afa158015611c36573d6000803e3d6000fd5b505050506040513d6020811015611c4c57600080fd5b50516040805160208881028281018201909352888252929350611c8e9290918991899182918501908490808284376000920191909152508892506147f8915050565b86611d928288887fffffffffffffffffffffffffffffffffffffffffffffffffffffffffffffffff8101818110611cc157fe5b9050602002013573ffffffffffffffffffffffffffffffffffffffff1673ffffffffffffffffffffffffffffffffffffffff166370a08231886040518263ffffffff1660e01b8152600401808273ffffffffffffffffffffffffffffffffffffffff1673ffffffffffffffffffffffffffffffffffffffff16815260200191505060206040518083038186803b158015611d5a57600080fd5b505afa158015611d6e573d6000803e3d6000fd5b505050506040513d6020811015611d8457600080fd5b50519063ffffffff614c6916565b1015611de9576040517f08c379a00000000000000000000000000000000000000000000000000000000081526004018080602001828103825260298152602001806156596029913960400191505060405180910390fd5b5050505050505050565b8042811015611e6357604080517f08c379a000000000000000000000000000000000000000000000000000000000815260206004820152601660248201527f50616e63616b65526f757465723a204558504952454400000000000000000000604482015290519081900360640190fd5b73ffffffffffffffffffffffffffffffffffffffff7f00000000000000000000000000000000000000000000000000000000000000001685857fffffffffffffffffffffffffffffffffffffffffffffffffffffffffffffffff8101818110611ec857fe5b9050602002013573ffffffffffffffffffffffffffffffffffffffff1673ffffffffffffffffffffffffffffffffffffffff1614611f6757604080517f08c379a000000000000000000000000000000000000000000000000000000000815260206004820152601b60248201527f50616e63616b65526f757465723a20494e56414c49445f504154480000000000604482015290519081900360640190fd5b611f7785856000818110611ada57fe5b611fb58585808060200260200160405190810160405280939291908181526020018383602002808284376000920191909152503092506147f8915050565b604080517f70a08231000000000000000000000000000000000000000000000000000000008152306004820152905160009173ffffffffffffffffffffffffffffffffffffffff7f000000000000000000000000000000000000000000000000000000000000000016916370a0823191602480820192602092909190829003018186803b15801561204557600080fd5b505afa158015612059573d6000803e3d6000fd5b505050506040513d602081101561206f57600080fd5b50519050868110156120cc576040517f08c379a00000000000000000000000000000000000000000000000000000000081526004018080602001828103825260298152602001806156596029913960400191505060405180910390fd5b7f000000000000000000000000000000000000000000000000000000000000000073ffffffffffffffffffffffffffffffffffffffff16632e1a7d4d826040518263ffffffff1660e01b815260040180828152602001915050600060405180830381600087803b15801561213f57600080fd5b505af1158015612153573d6000803e3d6000fd5b50505050611de98482613d61565b606081428110156121d357604080517f08c379a000000000000000000000000000000000000000000000000000000000815260206004820152601660248201527f50616e63616b65526f757465723a204558504952454400000000000000000000604482015290519081900360640190fd5b7f000000000000000000000000000000000000000000000000000000000000000073ffffffffffffffffffffffffffffffffffffffff168686600081811061221757fe5b9050602002013573ffffffffffffffffffffffffffffffffffffffff1673ffffffffffffffffffffffffffffffffffffffff16146122b657604080517f08c379a000000000000000000000000000000000000000000000000000000000815260206004820152601b60248201527f50616e63616b65526f757465723a20494e56414c49445f504154480000000000604482015290519081900360640190fd5b6123147f000000000000000000000000000000000000000000000000000000000000000034888880806020026020016040519081016040528093929190818152602001838360200280828437600092019190915250613fc292505050565b9150868260018451038151811061232757fe5b60200260200101511015612386576040517f08c379a00000000000000000000000000000000000000000000000000000000081526004018080602001828103825260298152602001806156596029913960400191505060405180910390fd5b7f000000000000000000000000000000000000000000000000000000000000000073ffffffffffffffffffffffffffffffffffffffff1663d0e30db0836000815181106123cf57fe5b60200260200101516040518263ffffffff1660e01b81526004016000604051808303818588803b15801561240257600080fd5b505af1158015612416573d6000803e3d6000fd5b50505050507f000000000000000000000000000000000000000000000000000000000000000073ffffffffffffffffffffffffffffffffffffffff1663a9059cbb6124887f000000000000000000000000000000000000000000000000000000000000000089896000818110611b2957fe5b8460008151811061249557fe5b60200260200101516040518363ffffffff1660e01b8152600401808373ffffffffffffffffffffffffffffffffffffffff1673ffffffffffffffffffffffffffffffffffffffff16815260200182815260200192505050602060405180830381600087803b15801561250657600080fd5b505af115801561251a573d6000803e3d6000fd5b505050506040513d602081101561253057600080fd5b505161253857fe5b612577828787808060200260200160405190810160405280939291908181526020018383602002808284376000920191909152508992506143e3915050565b5095945050505050565b6000610f84848484614cdb565b6060814281101561260057604080517f08c379a000000000000000000000000000000000000000000000000000000000815260206004820152601660248201527f50616e63616b65526f757465723a204558504952454400000000000000000000604482015290519081900360640190fd5b61265e7f00000000000000000000000000000000000000000000000000000000000000008988888080602002602001604051908101604052809392919081815260200183836020028082843760009201919091525061466a92505050565b9150868260008151811061266e57fe5b6020026020010151111561165a576040517f08c379a00000000000000000000000000000000000000000000000000000000081526004018080602001828103825260258152602001806157196025913960400191505060405180910390fd5b7f000000000000000000000000000000000000000000000000000000000000000081565b6000610f84848484614dff565b6000814281101561277057604080517f08c379a000000000000000000000000000000000000000000000000000000000815260206004820152601660248201527f50616e63616b65526f757465723a204558504952454400000000000000000000604482015290519081900360640190fd5b61279f887f00000000000000000000000000000000000000000000000000000000000000008989893089612dc1565b604080517f70a08231000000000000000000000000000000000000000000000000000000008152306004820152905191945061284992508a91879173ffffffffffffffffffffffffffffffffffffffff8416916370a0823191602480820192602092909190829003018186803b15801561281857600080fd5b505afa15801561282c573d6000803e3d6000fd5b505050506040513d602081101561284257600080fd5b5051613b9a565b7f000000000000000000000000000000000000000000000000000000000000000073ffffffffffffffffffffffffffffffffffffffff16632e1a7d4d836040518263ffffffff1660e01b815260040180828152602001915050600060405180830381600087803b1580156128bc57600080fd5b505af11580156128d0573d6000803e3d6000fd5b505050506113998483613d61565b804281101561294e57604080517f08c379a000000000000000000000000000000000000000000000000000000000815260206004820152601660248201527f50616e63616b65526f757465723a204558504952454400000000000000000000604482015290519081900360640190fd5b7f000000000000000000000000000000000000000000000000000000000000000073ffffffffffffffffffffffffffffffffffffffff168585600081811061299257fe5b9050602002013573ffffffffffffffffffffffffffffffffffffffff1673ffffffffffffffffffffffffffffffffffffffff1614612a3157604080517f08c379a000000000000000000000000000000000000000000000000000000000815260206004820152601b60248201527f50616e63616b65526f757465723a20494e56414c49445f504154480000000000604482015290519081900360640190fd5b60003490507f000000000000000000000000000000000000000000000000000000000000000073ffffffffffffffffffffffffffffffffffffffff1663d0e30db0826040518263ffffffff1660e01b81526004016000604051808303818588803b158015612a9e57600080fd5b505af1158015612ab2573d6000803e3d6000fd5b50505050507f000000000000000000000000000000000000000000000000000000000000000073ffffffffffffffffffffffffffffffffffffffff1663a9059cbb612b247f000000000000000000000000000000000000000000000000000000000000000089896000818110611b2957fe5b836040518363ffffffff1660e01b8152600401808373ffffffffffffffffffffffffffffffffffffffff1673ffffffffffffffffffffffffffffffffffffffff16815260200182815260200192505050602060405180830381600087803b158015612b8e57600080fd5b505af1158015612ba2573d6000803e3d6000fd5b505050506040513d6020811015612bb857600080fd5b5051612bc057fe5b600086867fffffffffffffffffffffffffffffffffffffffffffffffffffffffffffffffff8101818110612bf057fe5b9050602002013573ffffffffffffffffffffffffffffffffffffffff1673ffffffffffffffffffffffffffffffffffffffff166370a08231866040518263ffffffff1660e01b8152600401808273ffffffffffffffffffffffffffffffffffffffff1673ffffffffffffffffffffffffffffffffffffffff16815260200191505060206040518083038186803b158015612c8957600080fd5b505afa158015612c9d573d6000803e3d6000fd5b505050506040513d6020811015612cb357600080fd5b50516040805160208981028281018201909352898252929350612cf59290918a918a9182918501908490808284376000920191909152508992506147f8915050565b87611d928289897fffffffffffffffffffffffffffffffffffffffffffffffffffffffffffffffff8101818110612d2857fe5b9050602002013573ffffffffffffffffffffffffffffffffffffffff1673ffffffffffffffffffffffffffffffffffffffff166370a08231896040518263ffffffff1660e01b8152600401808273ffffffffffffffffffffffffffffffffffffffff1673ffffffffffffffffffffffffffffffffffffffff16815260200191505060206040518083038186803b158015611d5a57600080fd5b6000808242811015612e3457604080517f08c379a000000000000000000000000000000000000000000000000000000000815260206004820152601660248201527f50616e63616b65526f757465723a204558504952454400000000000000000000604482015290519081900360640190fd5b6000612e617f00000000000000000000000000000000000000000000000000000000000000008c8c614128565b604080517f23b872dd00000000000000000000000000000000000000000000000000000000815233600482015273ffffffffffffffffffffffffffffffffffffffff831660248201819052604482018d9052915192935090916323b872dd916064808201926020929091908290030181600087803b158015612ee257600080fd5b505af1158015612ef6573d6000803e3d6000fd5b505050506040513d6020811015612f0c57600080fd5b5050604080517f89afcb4400000000000000000000000000000000000000000000000000000000815273ffffffffffffffffffffffffffffffffffffffff888116600483015282516000938493928616926389afcb44926024808301939282900301818787803b158015612f7f57600080fd5b505af1158015612f93573d6000803e3d6000fd5b505050506040513d6040811015612fa957600080fd5b50805160209091015190925090506000612fc38e8e614edf565b5090508073ffffffffffffffffffffffffffffffffffffffff168e73ffffffffffffffffffffffffffffffffffffffff1614613000578183613003565b82825b90975095508a871015613061576040517f08c379a00000000000000000000000000000000000000000000000000000000081526004018080602001828103825260248152602001806156a56024913960400191505060405180910390fd5b898610156130ba576040517f08c379a00000000000000000000000000000000000000000000000000000000081526004018080602001828103825260248152602001806157646024913960400191505060405180910390fd5b505050505097509795505050505050565b7f000000000000000000000000000000000000000000000000000000000000000081565b60606113d17f00000000000000000000000000000000000000000000000000000000000000008484613fc2565b60015473ffffffffffffffffffffffffffffffffffffffff1681565b60008060006131887f00000000000000000000000000000000000000000000000000000000000000008e7f0000000000000000000000000000000000000000000000000000000000000000614128565b9050600087613197578c6131b9565b7fffffffffffffffffffffffffffffffffffffffffffffffffffffffffffffffff5b604080517fd505accf00000000000000000000000000000000000000000000000000000000815233600482015230602482015260448101839052606481018c905260ff8a16608482015260a4810189905260c48101889052905191925073ffffffffffffffffffffffffffffffffffffffff84169163d505accf9160e48082019260009290919082900301818387803b15801561325557600080fd5b505af1158015613269573d6000803e3d6000fd5b5050505061327b8e8e8e8e8e8e610e24565b909f909e509c50505050505050505050505050565b6000806000834281101561330557604080517f08c379a000000000000000000000000000000000000000000000000000000000815260206004820152601660248201527f50616e63616b65526f757465723a204558504952454400000000000000000000604482015290519081900360640190fd5b6133138c8c8c8c8c8c615032565b909450925060006133457f00000000000000000000000000000000000000000000000000000000000000008e8e614128565b90506133538d338388614213565b61335f8c338387614213565b8073ffffffffffffffffffffffffffffffffffffffff16636a627842886040518263ffffffff1660e01b8152600401808273ffffffffffffffffffffffffffffffffffffffff1673ffffffffffffffffffffffffffffffffffffffff168152602001915050602060405180830381600087803b1580156133de57600080fd5b505af11580156133f2573d6000803e3d6000fd5b505050506040513d602081101561340857600080fd5b5051949d939c50939a509198505050505050505050565b6000806000834281101561349457604080517f08c379a000000000000000000000000000000000000000000000000000000000815260206004820152601660248201527f50616e63616b65526f757465723a204558504952454400000000000000000000604482015290519081900360640190fd5b6134c28a7f00000000000000000000000000000000000000000000000000000000000000008b348c8c615032565b909450925060006135147f00000000000000000000000000000000000000000000000000000000000000008c7f0000000000000000000000000000000000000000000000000000000000000000614128565b90506135228b338388614213565b7f000000000000000000000000000000000000000000000000000000000000000073ffffffffffffffffffffffffffffffffffffffff1663d0e30db0856040518263ffffffff1660e01b81526004016000604051808303818588803b15801561358a57600080fd5b505af115801561359e573d6000803e3d6000fd5b50505050507f000000000000000000000000000000000000000000000000000000000000000073ffffffffffffffffffffffffffffffffffffffff1663a9059cbb82866040518363ffffffff1660e01b8152600401808373ffffffffffffffffffffffffffffffffffffffff1673ffffffffffffffffffffffffffffffffffffffff16815260200182815260200192505050602060405180830381600087803b15801561364a57600080fd5b505af115801561365e573d6000803e3d6000fd5b505050506040513d602081101561367457600080fd5b505161367c57fe5b8073ffffffffffffffffffffffffffffffffffffffff16636a627842886040518263ffffffff1660e01b8152600401808273ffffffffffffffffffffffffffffffffffffffff1673ffffffffffffffffffffffffffffffffffffffff168152602001915050602060405180830381600087803b1580156136fb57600080fd5b505af115801561370f573d6000803e3d6000fd5b505050506040513d602081101561372557600080fd5b505192503484101561373d5761373d33853403613d61565b505096509650969350505050565b606081428110156137bd57604080517f08c379a000000000000000000000000000000000000000000000000000000000815260206004820152601660248201527f50616e63616b65526f757465723a204558504952454400000000000000000000604482015290519081900360640190fd5b7f000000000000000000000000000000000000000000000000000000000000000073ffffffffffffffffffffffffffffffffffffffff168686600081811061380157fe5b9050602002013573ffffffffffffffffffffffffffffffffffffffff1673ffffffffffffffffffffffffffffffffffffffff16146138a057604080517f08c379a000000000000000000000000000000000000000000000000000000000815260206004820152601b60248201527f50616e63616b65526f757465723a20494e56414c49445f504154480000000000604482015290519081900360640190fd5b6138fe7f00000000000000000000000000000000000000000000000000000000000000008888888080602002602001604051908101604052809392919081815260200183836020028082843760009201919091525061466a92505050565b9150348260008151811061390e57fe5b6020026020010151111561396d576040517f08c379a00000000000000000000000000000000000000000000000000000000081526004018080602001828103825260258152602001806157196025913960400191505060405180910390fd5b7f000000000000000000000000000000000000000000000000000000000000000073ffffffffffffffffffffffffffffffffffffffff1663d0e30db0836000815181106139b657fe5b60200260200101516040518263ffffffff1660e01b81526004016000604051808303818588803b1580156139e957600080fd5b505af11580156139fd573d6000803e3d6000fd5b50505050507f000000000000000000000000000000000000000000000000000000000000000073ffffffffffffffffffffffffffffffffffffffff1663a9059cbb613a6f7f000000000000000000000000000000000000000000000000000000000000000089896000818110611b2957fe5b84600081518110613a7c57fe5b60200260200101516040518363ffffffff1660e01b8152600401808373ffffffffffffffffffffffffffffffffffffffff1673ffffffffffffffffffffffffffffffffffffffff16815260200182815260200192505050602060405180830381600087803b158015613aed57600080fd5b505af1158015613b01573d6000803e3d6000fd5b505050506040513d6020811015613b1757600080fd5b5051613b1f57fe5b613b5e828787808060200260200160405190810160405280939291908181526020018383602002808284376000920191909152508992506143e3915050565b81600081518110613b6b57fe5b6020026020010151341115612577576125773383600081518110613b8b57fe5b60200260200101513403613d61565b6040805173ffffffffffffffffffffffffffffffffffffffff8481166024830152604480830185905283518084039091018152606490920183526020820180517bffffffffffffffffffffffffffffffffffffffffffffffffffffffff167fa9059cbb00000000000000000000000000000000000000000000000000000000178152925182516000946060949389169392918291908083835b60208310613c7057805182527fffffffffffffffffffffffffffffffffffffffffffffffffffffffffffffffe09092019160209182019101613c33565b6001836020036101000a0380198251168184511680821785525050505050509050019150506000604051808303816000865af19150503d8060008114613cd2576040519150601f19603f3d011682016040523d82523d6000602084013e613cd7565b606091505b5091509150818015613d05575080511580613d055750808060200190516020811015613d0257600080fd5b50515b613d5a576040517f08c379a000000000000000000000000000000000000000000000000000000000815260040180806020018281038252602d8152602001806156ec602d913960400191505060405180910390fd5b5050505050565b6040805160008082526020820190925273ffffffffffffffffffffffffffffffffffffffff84169083906040518082805190602001908083835b60208310613dd857805182527fffffffffffffffffffffffffffffffffffffffffffffffffffffffffffffffe09092019160209182019101613d9b565b6001836020036101000a03801982511681845116808217855250505050505090500191505060006040518083038185875af1925050503d8060008114613e3a576040519150601f19603f3d011682016040523d82523d6000602084013e613e3f565b606091505b5050905080613e99576040517f08c379a00000000000000000000000000000000000000000000000000000000081526004018080602001828103825260348152602001806156256034913960400191505060405180910390fd5b505050565b6000808411613ef8576040517f08c379a00000000000000000000000000000000000000000000000000000000081526004018080602001828103825260298152602001806155a16029913960400191505060405180910390fd5b600083118015613f085750600082115b613f5d576040517f08c379a000000000000000000000000000000000000000000000000000000000815260040180806020018281038252602681526020018061573e6026913960400191505060405180910390fd5b6000613f71856126f763ffffffff61533316565b90506000613f85828563ffffffff61533316565b90506000613fab83613f9f8861271063ffffffff61533316565b9063ffffffff6153b916565b9050808281613fb657fe5b04979650505050505050565b606060028251101561403557604080517f08c379a000000000000000000000000000000000000000000000000000000000815260206004820152601c60248201527f50616e63616b654c6962726172793a20494e56414c49445f5041544800000000604482015290519081900360640190fd5b815167ffffffffffffffff8111801561404d57600080fd5b50604051908082528060200260200182016040528015614077578160200160208202803683370190505b509050828160008151811061408857fe5b60200260200101818152505060005b6001835103811015614120576000806140da878685815181106140b657fe5b60200260200101518786600101815181106140cd57fe5b602002602001015161542b565b915091506140fc8484815181106140ed57fe5b60200260200101518383613e9e565b84846001018151811061410b57fe5b60209081029190910101525050600101614097565b509392505050565b60008060006141378585614edf565b604080517fffffffffffffffffffffffffffffffffffffffff000000000000000000000000606094851b811660208084019190915293851b81166034830152825160288184030181526048830184528051908501207fff0000000000000000000000000000000000000000000000000000000000000060688401529a90941b9093166069840152607d8301989098527fa5934690703a592a07e841ca29d5e5c79b5e22ed4749057bb216dc31100be1c0609d808401919091528851808403909101815260bd909201909752805196019590952095945050505050565b6040805173ffffffffffffffffffffffffffffffffffffffff85811660248301528481166044830152606480830185905283518084039091018152608490920183526020820180517bffffffffffffffffffffffffffffffffffffffffffffffffffffffff167f23b872dd0000000000000000000000000000000000000000000000000000000017815292518251600094606094938a169392918291908083835b602083106142f157805182527fffffffffffffffffffffffffffffffffffffffffffffffffffffffffffffffe090920191602091820191016142b4565b6001836020036101000a0380198251168184511680821785525050505050509050019150506000604051808303816000865af19150503d8060008114614353576040519150601f19603f3d011682016040523d82523d6000602084013e614358565b606091505b5091509150818015614386575080511580614386575080806020019051602081101561438357600080fd5b50515b6143db576040517f08c379a00000000000000000000000000000000000000000000000000000000081526004018080602001828103825260318152602001806155f46031913960400191505060405180910390fd5b505050505050565b60005b60018351038110156146645760008084838151811061440157fe5b602002602001015185846001018151811061441857fe5b60200260200101519150915060006144308383614edf565b509050600087856001018151811061444457fe5b602002602001015190506000808373ffffffffffffffffffffffffffffffffffffffff168673ffffffffffffffffffffffffffffffffffffffff161461448c57826000614490565b6000835b91509150600060028a510388106144a757886144e8565b6144e87f0000000000000000000000000000000000000000000000000000000000000000878c8b600201815181106144db57fe5b6020026020010151614128565b90506145157f00000000000000000000000000000000000000000000000000000000000000008888614128565b73ffffffffffffffffffffffffffffffffffffffff1663022c0d9f84848460006040519080825280601f01601f19166020018201604052801561455f576020820181803683370190505b506040518563ffffffff1660e01b8152600401808581526020018481526020018373ffffffffffffffffffffffffffffffffffffffff1673ffffffffffffffffffffffffffffffffffffffff16815260200180602001828103825283818151815260200191508051906020019080838360005b838110156145ea5781810151838201526020016145d2565b50505050905090810190601f1680156146175780820380516001836020036101000a031916815260200191505b5095505050505050600060405180830381600087803b15801561463957600080fd5b505af115801561464d573d6000803e3d6000fd5b5050600190990198506143e6975050505050505050565b50505050565b60606002825110156146dd57604080517f08c379a000000000000000000000000000000000000000000000000000000000815260206004820152601c60248201527f50616e63616b654c6962726172793a20494e56414c49445f5041544800000000604482015290519081900360640190fd5b815167ffffffffffffffff811180156146f557600080fd5b5060405190808252806020026020018201604052801561471f578160200160208202803683370190505b509050828160018351038151811061473357fe5b602090810291909101015281517fffffffffffffffffffffffffffffffffffffffffffffffffffffffffffffffff015b8015614120576000806147938786600186038151811061477f57fe5b60200260200101518786815181106140cd57fe5b915091506147b58484815181106147a657fe5b60200260200101518383614cdb565b8460018503815181106147c457fe5b602090810291909101015250507fffffffffffffffffffffffffffffffffffffffffffffffffffffffffffffffff01614763565b6000808360018551038151811061480b57fe5b602002602001015190506000839050600285511115614873576148707f00000000000000000000000000000000000000000000000000000000000000008660028851038151811061485857fe5b6020026020010151876001895103815181106144db57fe5b90505b60005b6001865103811015614bd45760008087838151811061489157fe5b60200260200101518884600101815181106148a857fe5b60200260200101519150915060006148c08383614edf565b50905060006148f07f00000000000000000000000000000000000000000000000000000000000000008585614128565b90506000806000808473ffffffffffffffffffffffffffffffffffffffff16630902f1ac6040518163ffffffff1660e01b815260040160606040518083038186803b15801561493e57600080fd5b505afa158015614952573d6000803e3d6000fd5b505050506040513d606081101561496857600080fd5b5080516020909101516dffffffffffffffffffffffffffff918216935016905060008073ffffffffffffffffffffffffffffffffffffffff8a8116908916146149b25782846149b5565b83835b91509150614a3a828b73ffffffffffffffffffffffffffffffffffffffff166370a082318a6040518263ffffffff1660e01b8152600401808273ffffffffffffffffffffffffffffffffffffffff1673ffffffffffffffffffffffffffffffffffffffff16815260200191505060206040518083038186803b158015611d5a57600080fd5b9550614a47868383613e9e565b9450505050506000808573ffffffffffffffffffffffffffffffffffffffff168873ffffffffffffffffffffffffffffffffffffffff1614614a8b57826000614a8f565b6000835b6040805160008082526020820190925292945090925073ffffffffffffffffffffffffffffffffffffffff87169163022c0d9f91859185918f9190506040518563ffffffff1660e01b8152600401808581526020018481526020018373ffffffffffffffffffffffffffffffffffffffff1673ffffffffffffffffffffffffffffffffffffffff16815260200180602001828103825283818151815260200191508051906020019080838360005b83811015614b55578181015183820152602001614b3d565b50505050905090810190601f168015614b825780820380516001836020036101000a031916815260200191505b5095505050505050600060405180830381600087803b158015614ba457600080fd5b505af1158015614bb8573d6000803e3d6000fd5b5050509b9092019a505060019096019550614876945050505050565b506000614bf96064614bed86603263ffffffff61533316565b9063ffffffff61551f16565b90506000614c136064614bed87601463ffffffff61533316565b600054909150614c3b90859073ffffffffffffffffffffffffffffffffffffffff1684613b9a565b600154614c6090859073ffffffffffffffffffffffffffffffffffffffff1683613b9a565b50505050505050565b808203828111156113d457604080517f08c379a000000000000000000000000000000000000000000000000000000000815260206004820152601560248201527f64732d6d6174682d7375622d756e646572666c6f770000000000000000000000604482015290519081900360640190fd5b6000808411614d35576040517f08c379a000000000000000000000000000000000000000000000000000000000815260040180806020018281038252602a8152602001806155ca602a913960400191505060405180910390fd5b600083118015614d455750600082115b614d9a576040517f08c379a000000000000000000000000000000000000000000000000000000000815260040180806020018281038252602681526020018061573e6026913960400191505060405180910390fd5b6000614dbe612710614db2868863ffffffff61533316565b9063ffffffff61533316565b90506000614dd86126f7614db2868963ffffffff614c6916565b9050614df56001828481614de857fe5b049063ffffffff6153b916565b9695505050505050565b6000808411614e59576040517f08c379a00000000000000000000000000000000000000000000000000000000081526004018080602001828103825260238152602001806156c96023913960400191505060405180910390fd5b600083118015614e695750600082115b614ebe576040517f08c379a000000000000000000000000000000000000000000000000000000000815260040180806020018281038252602681526020018061573e6026913960400191505060405180910390fd5b82614ecf858463ffffffff61533316565b81614ed657fe5b04949350505050565b6000808273ffffffffffffffffffffffffffffffffffffffff168473ffffffffffffffffffffffffffffffffffffffff161415614f67576040517f08c379a00000000000000000000000000000000000000000000000000000000081526004018080602001828103825260238152602001806156826023913960400191505060405180910390fd5b8273ffffffffffffffffffffffffffffffffffffffff168473ffffffffffffffffffffffffffffffffffffffff1610614fa1578284614fa4565b83835b909250905073ffffffffffffffffffffffffffffffffffffffff821661502b57604080517f08c379a000000000000000000000000000000000000000000000000000000000815260206004820152601c60248201527f50616e63616b654c6962726172793a205a45524f5f4144445245535300000000604482015290519081900360640190fd5b9250929050565b604080517fe6a4390500000000000000000000000000000000000000000000000000000000815273ffffffffffffffffffffffffffffffffffffffff888116600483015287811660248301529151600092839283927f00000000000000000000000000000000000000000000000000000000000000009092169163e6a4390591604480820192602092909190829003018186803b1580156150d257600080fd5b505afa1580156150e6573d6000803e3d6000fd5b505050506040513d60208110156150fc57600080fd5b505173ffffffffffffffffffffffffffffffffffffffff1614156151e257604080517fc9c6539600000000000000000000000000000000000000000000000000000000815273ffffffffffffffffffffffffffffffffffffffff8a81166004830152898116602483015291517f00000000000000000000000000000000000000000000000000000000000000009092169163c9c65396916044808201926020929091908290030181600087803b1580156151b557600080fd5b505af11580156151c9573d6000803e3d6000fd5b505050506040513d60208110156151df57600080fd5b50505b6000806152107f00000000000000000000000000000000000000000000000000000000000000008b8b61542b565b91509150816000148015615222575080155b1561523257879350869250615326565b600061523f898484614dff565b90508781116152ac57858110156152a1576040517f08c379a00000000000000000000000000000000000000000000000000000000081526004018080602001828103825260248152602001806157646024913960400191505060405180910390fd5b889450925082615324565b60006152b9898486614dff565b9050898111156152c557fe5b8781101561531e576040517f08c379a00000000000000000000000000000000000000000000000000000000081526004018080602001828103825260248152602001806156a56024913960400191505060405180910390fd5b94508793505b505b5050965096945050505050565b600081158061534e5750508082028282828161534b57fe5b04145b6113d457604080517f08c379a000000000000000000000000000000000000000000000000000000000815260206004820152601460248201527f64732d6d6174682d6d756c2d6f766572666c6f77000000000000000000000000604482015290519081900360640190fd5b808201828110156113d457604080517f08c379a000000000000000000000000000000000000000000000000000000000815260206004820152601460248201527f64732d6d6174682d6164642d6f766572666c6f77000000000000000000000000604482015290519081900360640190fd5b600080600061543a8585614edf565b509050615448868686614128565b50600080615457888888614128565b73ffffffffffffffffffffffffffffffffffffffff16630902f1ac6040518163ffffffff1660e01b815260040160606040518083038186803b15801561549c57600080fd5b505afa1580156154b0573d6000803e3d6000fd5b505050506040513d60608110156154c657600080fd5b5080516020909101516dffffffffffffffffffffffffffff918216935016905073ffffffffffffffffffffffffffffffffffffffff8781169084161461550d578082615510565b81815b90999098509650505050505050565b600080821161558f57604080517f08c379a000000000000000000000000000000000000000000000000000000000815260206004820152601360248201527f64732d6d6174682d6469762d62792d7a65726f00000000000000000000000000604482015290519081900360640190fd5b81838161559857fe5b04939250505056fe50616e63616b654c6962726172793a20494e53554646494349454e545f494e5055545f414d4f554e5450616e63616b654c6962726172793a20494e53554646494349454e545f4f55545055545f414d4f554e545472616e7366657248656c7065723a3a7472616e7366657246726f6d3a207472616e7366657246726f6d206661696c65645472616e7366657248656c7065723a3a736166655472616e736665724554483a20455448207472616e73666572206661696c656450616e63616b65526f757465723a20494e53554646494349454e545f4f55545055545f414d4f554e5450616e63616b654c6962726172793a204944454e544943414c5f41444452455353455350616e63616b65526f757465723a20494e53554646494349454e545f415f414d4f554e5450616e63616b654c6962726172793a20494e53554646494349454e545f414d4f554e545472616e7366657248656c7065723a3a736166655472616e736665723a207472616e73666572206661696c656450616e63616b65526f757465723a204558434553534956455f494e5055545f414d4f554e5450616e63616b654c6962726172793a20494e53554646494349454e545f4c495155494449545950616e63616b65526f757465723a20494e53554646494349454e545f425f414d4f554e54a2646970667358221220c94cd58f7fbe40e9915ba1c9bb5da587062cec5acf850bcd5a0eb5486b678d0a64736f6c63430006060033",
  "linkReferences": {},
  "deployedLinkReferences": {}
}